:020000040001F9
:1040000000390020C1410100D3410100D541010028
:1040100000000000000000000000000000000000A0
:10402000000000000000000000000000D741010077
:104030000000000000000000D9410100DB41010048
:10404000DD410100DD410100DD410100DD410100F4
:10405000DD410100000000004D840100C942010063
:10406000DD410100DD410100DD410100DD410100D4
:10407000DD410100DD410100DD410100DD410100C4
:10408000DD410100E96A0100DD410100DD4101007F
:104090000B6B010065830100CD6E0100DD41010065
:1040A000DD410100DD4101000000000000000000D2
:1040B0000000000000000000000000000000000000
:1040C00000F002F800F040F80CA030C808382418BE
:1040D0002D18A246671EAB4654465D46AC4201D140
:1040E00000F032F87E460F3E0FCCB6460126334232
:1040F00000D0FB1AA246AB4633431847304A0000B3
:10410000504A0000103A02D378C878C1FAD8520752
:1041100001D330C830C101D504680C60704700007D
:104120000023002400250026103A01D378C1FBD8D3
:10413000520700D330C100D50B6070471FB5C04691
:10414000C0461FBD10B510BD04F0B9FC1146FFF705
:10415000F5FF00F03FFF04F0D1FC03B4FFF7F2FFDE
:1041600003BC04F0D5FC0000401E00BF00BF00BF30
:1041700000BF00BF00BF00BF00BF00BF00BF00BF47
:1041800000BFF1D17047000070B505460C461646D9
:1041900002E00FCC0FC5103E102EFAD2082E02D32B
:1041A00003CC03C5083E042E07D301CC01C5361F3E
:1041B00003E021782970641C6D1C761EF9D270BD55
:1041C0000A4802680F210A430260094880470948EB
:1041D0000047FEE7FEE7FEE7FEE7FEE7FEE700003A
:1041E00005480649064A074B704700002405004071
:1041F0006F420100C1400100002900200039002069
:1042000000310020003100201F482049086070471D
:104210001F48008CC0B2012827D11D48808C0007A0
:10422000000F22D11A48806AF021084205D11848AF
:10423000C06A084201D1012070471548806AF02108
:104240000840102805D11248C06A084201D1012057
:10425000F2E70F48806AF0210840302805D10C4869
:10426000C06A084201D10120E6E70020E4E710B56A
:10427000FFF7CEFF002805D0064807494860C8135D
:104280000649886110BD00000024F40000200020D1
:10429000C00F00F0DFFF07C000050040006C0040C9
:1042A000704710B503460C4622461946FD48FFF7F5
:1042B000F7FF10BD00B5034600BFFBA2DE21184684
:1042C000FFF7EEFF00BF00BDF8B5FA480068002810
:1042D0002FD00020F7490860F7488068C5B2012058
:1042E000F64948604B21090169430846FF2104F063
:1042F00040FB41004018FF300F3086B2304600F0DE
:1043000092FE07463946EE4801F045FA0446002C75
:104310000ED0082C0CD0EB48844209D0EA488442E5
:1043200006D000BFE0A2FF212046FFF7B9FF00BF83
:1043300000BFF8BD10B50120E44948601820DE49EF
:1043400048600020DB4908600120DB490860072045
:1043500027DF044600BF2346002B07D000BFD2A2B0
:10436000FF2117311846FFF79BFF00BF00BF032155
:10437000072028DF044600BF2346002B07D000BFDC
:10438000C9A2FF211A311846FFF78AFF00BF00BFFC
:10439000072023DF044600BF2346002B07D000BFC1
:1043A000C1A2FF211D311846FFF77AFF00BF00BFF1
:1043B0000020C04908600120C049086010BD10B548
:1043C000C348007800281FD10120C249087012207C
:1043D00000F01FFE0120BF490870BD490870BD4AAA
:1043E000BD49BE48006802F05AFC044600BF23469F
:1043F000002B07D000BFACA2FF2134311846FFF7D5
:104400004FFF00BF00BF00BF10BD10B5B34800682C
:1044100002F076FC044600BF2346002B07D000BF05
:10442000A1A2FF213F311846FFF73AFF00BF00BFAE
:104430000020A7490870122000F0F0FD10BD10B553
:10444000A748007800281DD10120A64908700E2039
:1044500000F0DFFD0120A2490870A24A9E49A2484F
:10446000006802F01CFC044600BF2346002B07D066
:1044700000BF8DA2FF2157311846FFF711FF00BF83
:1044800000BF00BF10BD10B59748006802F038FCAF
:10449000044600BF2346002B07D000BF82A2FF21A5
:1044A00062311846FFF7FCFE00BF00BF00208C49B8
:1044B00008700E2000F0B2FD10BD11B593B00421BC
:1044C00003918A4A07CA6B4607C3002088490860DF
:1044D0003C2104A804F041FA02200490012168461E
:1044E0004175018313A9079103A808900321684629
:1044F000818569460C91002104A801F023FD044642
:1045000000BF2346002B06D000BF67A2794918469A
:10451000FFF7C6FE00BF00BF14B010BD10B58AB0D3
:10452000142105A804F019FA00216846017500203D
:10453000069068460177002008906D4800680028C2
:1045400006D0012808D0022834D003284BD13DE002
:1045500001206749086000BF01A803F0FDFA044686
:1045600000BF2346002B07D000BF4FA2FF2181319F
:104570001846FFF795FE00BF00BF6846007A002886
:1045800003D16846007C00280BD0022069460877DA
:1045900001A808900420FFF790FF0220544908600A
:1045A00002E00320524908602821684681841E21C8
:1045B000C18419E00520FFF780FF28216846818427
:1045C0001E21C18403204A4908600DE00520FFF741
:1045D00074FF1921C90168468184B421C184042073
:1045E0004349086000E000BF00BF05A863DF044640
:1045F00000BF2346002B07D000BF2BA2FF21A9310B
:104600001846FFF74DFE00BF00BFFFF7D8FE0AB007
:1046100010BD10B50446FFF78DFE10BDF8B5054678
:104620002F48007800283CD000BF002D01D0012089
:1046300000E000200346002B06D100BF1AA2FF2194
:10464000CB31FFF72DFE00BF00BF0E202A4949687D
:10465000012282405140284A516000BF2C462078F8
:10466000002801D1012000E00020207020780028DF
:1046700001D0194F00E0214F224639461A48006800
:1046800002F00DFB064600BF3346002B07D000BFEB
:1046900005A2FF21E1311846FFF702FE00BF00BF6F
:1046A00000BFF8BDEFBEADDE2E2E5C6D61696E2ED3
:1046B0006300000000710040007500400070004081
:1046C0008C240020033000000134000000730040FF
:1046D0001620002004200020CD0C000030200020F7
:1046E00015200020052000202C200020208B010018
:1046F0002020002047020000000500503373000016
:1047000000BF00BF032005210907072212028918F4
:10471000886300BF00BF704738B500BF0020FC4B66
:1047200007220521009002F0F4F9054600BF2B4650
:10473000002B07D000BFF74AFF21F5311846FFF7DD
:10474000AFFD00BF00BF00BFF34A0121F34802F0F4
:104750005FFA044600BF2346002B07D000BFED4A96
:10476000FF21FB311846FFF79BFD00BF00BFEC4A5D
:104770000021EC4802F04CFA044600BF2346002B0F
:1047800006D000BFE34AE8491846FFF789FD00BF9D
:1047900000BF38BD3EB500BF684600780109090179
:1047A000491C009168460078F02188431030009041
:1047B00000BF0422DDA168466CDF044600BF23462B
:1047C000002B07D000BFD34AD74912311846FFF754
:1047D00067FD00BF00BF0920800168DF044600BFFD
:1047E0002346002B07D000BFCA4A852189001846FE
:1047F000FFF756FD00BF00BF002001900290FF218F
:104800009131684681804900C18000210181FF21EA
:104810009131418101A86ADF044600BF2346002B85
:1048200007D000BFBB4AC0491F311846FFF738FD0B
:1048300000BF00BF042067DF044600BF2346002BF3
:1048400007D000BFB34AB84922311846FFF728FD08
:1048500000BF00BF3EBD38B500200090042069466F
:10486000087000BF6846407801090901491C684684
:1048700041704078F021884320306946487000BF7D
:1048800000BF68468078000900018870684680781B
:10489000F02188436946887000BFA64800F06DFC8F
:1048A000044600BF2346002B07D000BF994A4B2186
:1048B000C9001846FFF7F4FC00BF00BF38BD10B5B3
:1048C0000446002C02D0022C0CD105E000209A49AD
:1048D0000870FFF7D8FD06E0FFF7D5FD0E2000F0C9
:1048E00098FB00E000BF00BF10BD70B505460C4648
:1048F0002068002803D12079FFF7E1FF00E000BF26
:1049000000BF70BD38B5002000908C48009069460B
:104910008B4800F0E9FC044600BF2346002B07D07B
:1049200000BF7C4A804967311846FFF7B9FC00BFD9
:1049300000BF38BD70B505460C462068002806D17A
:1049400001207D4908702079FFF7B9FF00E000BF22
:1049500000BF70BD3EB500200090019002907948E4
:1049600000907948019000206946087200BF6846AF
:10497000407A01090901491C68464172407AF021D8
:10498000884320306946487200BF00BF6846807A7D
:1049900000090001401C88726846807AF021884333
:1049A00020306946887200BF684800F080FD0446E8
:1049B00000BF2346002B07D000BF564A5A497C311E
:1049C0001846FFF76DFC00BF00BF00205A49087071
:1049D0003EBD70B506460D462868002802D0012865
:1049E00028D114E00022E121C9044C48006802F0FB
:1049F00056F9044600BF2346002B06D000BF454AA7
:104A000053491846FFF74CFC00BF00BF13E0434872
:104A1000006802F075F9044600BF2346002B07D05A
:104A200000BF3C4A6B21C9001846FFF739FC00BFA4
:104A300000BF00E000BF00BF70BD10B586B01421FC
:104A400001A803F08AFF43480190012168460172E2
:104A50000020039064216846017400BF407C010976
:104A60000901491C68464174407CF021884310309C
:104A70006946487400BF00BF01A8807B000900019F
:104A8000401C01A9887301A8807BF0218843103065
:104A900001A9887300BF00BF01A8C07B0009000105
:104AA000C87301A8C07BF021884301A9C87300BF67
:104AB00000BF6846007D01090901491C684601756F
:104AC000007DF021884310306946087500BF01A9B8
:104AD000214800F03FFE044600BF2346002B07D0CC
:104AE00000BF0C4AA52189001846FFF7D9FB00BF7B
:104AF00000BF06B010BD70B506460C460025206804
:104B000000282BD001282AD002282DD128E000002F
:104B1000D8200020A84601001346010028200020CC
:104B20001D4601002C200020FF01000054696C6527
:104B3000000000005C24002014200020EB4801004D
:104B40006824002035490100B54201007824002086
:104B500053030000D34901008C24002005E004E049
:104B600003F096FB054600E000BF00BF00BF2B46E8
:104B7000002B07D000BFF84A0D2189011846FFF726
:104B80008FFB00BF00BF70BD1CB5002000900190DE
:104B9000F2490870F2480090F24801906946F248E4
:104BA00000F03CFE044600BF2346002B07D000BFA8
:104BB000E94A5521C9001846FFF772FB00BF00BF44
:104BC0001CBD10B5FFF747FEFFF79CFEFFF7C2FEC6
:104BD000FFF733FFFFF7D8FF10BD1E20E349088021
:104BE0000846807840084000401C8870084680785D
:104BF00002218843DD498870084680781C2188435B
:104C00000C30DA4988700846807820218843D749DB
:104C100088700720C87010200871704700B50346DF
:104C200000BFCD4AD2491846FFF73AFB00BF00BD8E
:104C300010B588B01C2101A803F08FFE0020019060
:104C40000520C003029003900321684601740021EF
:104C500041820121017500200690C648079001A8F5
:104C600001F04DFA044600BF2346002B07D000BFD9
:104C7000B94A172149011846FFF712FB00BF00BFD0
:104C800008B010BD70B5044600252088192844D00E
:104C900006DC10280BD011281BD0132865D135E075
:104CA0001A2861D0392858D055285ED156E0FFF730
:104CB000ACFBB1480078002801D0FFF7E4FB0020EE
:104CC000AE490860A088AE49088003F0D5FA0546D1
:104CD0004CE0A9480078002801D1FFF7D4FB002060
:104CE000C043A749088002F054FE054600BF2B468A
:104CF000002B07D000BF984A9D49B8311846FFF7EE
:104D0000CFFA00BF00BFFFF709FC2FE0974A002150
:104D10009B4800886FDF054628E0A07900281BD15A
:104D200096480068042815D1002094490860FFF7D0
:104D30006CFBFFF7A8FB00BF00BF032000040521A8
:104D40000907072212028918086400BF00BF31DF7B
:104D5000054601E0FFF7E2FB08E000BF13218848A9
:104D6000008866DF054601E000E000BF00BF00BF2D
:104D70002B46002B07D000BF774A7D49E431184607
:104D8000FFF78EFA00BF00BF70BD10B50446204685
:104D900002F0C8FD204601F086FA2146794800F06D
:104DA0002AFA2146784800F00CFB2146774800F0AB
:104DB000D4FB21466C4800F0C4FD2046FFF762FF9B
:104DC00010BD38B500BF0020714B502271490090D2
:104DD000052002F032F8044600BF2346002B06D01F
:104DE00000BF5D4A6C491846FFF75AFA00BF00BF82
:104DF00000BF38BD00B5034600BF574A66490C31B5
:104E00001846FFF74DFA00BF00BD1FB569461020D8
:104E100003F053FA044600BF2346002B07D000BF1F
:104E20004D4A5D4919311846FFF73AFA00BF00BFF5
:104E30005A484069401C08D001221207126991B2F9
:104E4000564A506903F08BFD02E0012000074069DB
:104E5000401E6946087151484069401C08D0012233
:104E60001207126991B24D4A506903F078FD02E0D1
:104E7000012000074069C01EC1B268464171002090
:104E800002904748039068460178817101A802F0BA
:104E9000BCFE044600BF2346002B07D000BF2E4AAD
:104EA0003D4923311846FFF7FBF900BF00BF1FBD86
:104EB00010B53C4A0521012003F065FA044600BF05
:104EC0002346002B07D000BF234A33492F31184611
:104ED000FFF7E6F900BF00BF10BD00B50346102B79
:104EE00000D108E000BF1C4A2B493F311846FFF7AC
:104EF000D7F900BF00BF00BF00BD10B500BF2A49F1
:104F0000012003F008FB044600BF2346002B07D016
:104F100000BF114A204947311846FFF7C1F900BFC9
:104F200000BF00BF10BD10B500BF00231F4A012104
:104F30001F4803F043F9044600BF2346002B07D067
:104F400000BF054A144951311846FFF7A9F900BFBF
:104F500000BF00BF10BD0000A846010024200020B3
:104F6000F74A0100B5420100A424002018200020C7
:104F7000C90200001D4C0100142000202020002048
:104F80000620002068240020782400208C240020A3
:104F90008B4D0100F8230020CA0300000010001010
:104FA000F54D0100C980010048240020660600007C
:104FB0000820002010B53DDF044600BF2346002B2B
:104FC00006D000BF3D4A3E491846FFF769F900BFC9
:104FD00000BF10BDFFF794FBFFF79EFBFFF78DFFAF
:104FE000FFF7A1FFFFF711FFFFF7EBFEFFF7D2FB83
:104FF0000520FFF762FAFFF7E4FDFFF719FEFFF760
:10500000ECFDFFF755FFFFF789FA00BFFFF7D2FF6E
:10501000FCE7012181402B4A9160704701218140CA
:10502000284AD160704770B504462748844201DBA6
:10503000642540E02448643884420BDD2249091B82
:105040003A2251430846642103F093FC6421081A74
:10505000C5B230E01D4884420CDD1B496439091B90
:10506000182251430846A02103F083FC2A21081A84
:10507000C5B220E0164884420CDD1449091B0C22FD
:1050800051430846FF212D3103F073FC1221081A09
:10509000C5B210E00F4884420CDD0D49091B062201
:1050A00051430846FF21553103F063FC0621081ADD
:1050B000C5B200E00025284670BD0000A8460100EA
:1050C0002404000000050050B80B0000B40A0000E2
:1050D000880900003408000030B58FB005460C4642
:1050E0001C2108A803F039FC08A90878022188438C
:1050F000801C08A90870002009900B900C900D905E
:105100000E9000BF0121684681722E49018100BFC7
:1051100000200190617868460171A1784171807921
:1051200006218843811C6846817180790821884363
:10513000014668468171807910218843014668469E
:10514000817180794108490068468171142103A862
:1051500003F003FC02A8039001A804900121684613
:1051600081820021C1820121018307942888AB1C20
:1051700003AA08A9A2DF0FB030BDF8B505460E4658
:1051800000BF0121684681700F49018000BF2A4697
:1051900069460120A0DF0446002C01D02046F8BD5E
:1051A00031462846FFF798FFF9E713B582B0044669
:1051B00001200190608803AB01AA0021A4DF04B0A4
:1051C00010BD0000072A0000041800007CB504464A
:1051D0000E46B51D2888E18888420BD1288B01280E
:1051E00008D100200090A87E6946087120462268F8
:1051F000904700BF7CBD70B505460C4620885028FE
:1052000004D121462846FFF7E1FF00E000BF00BFC0
:1052100070BD10B590B004461C2109A803F09DFB99
:1052200008A9087904218843001D08A908710020F5
:105230000A900C900D900E900F9000BF01216846CF
:1052400081733E49818100BF0020029000BF684603
:10525000007A0109090168460172007AF021884349
:105260006946087200BF00BF6846407A010909011B
:10527000491C68464172407AF021884320306946D3
:10528000487200BF6846807A06218843811C6846C0
:105290008172807A08218843014668468172807A4B
:1052A00010218843014668468172807A410849008E
:1052B00068468172142104A803F04FFB002101917C
:1052C00003A8049002A805900121684601830021EB
:1052D00041830121818301A80890A088A31D04AA0D
:1052E00009A9A2DF10B010BDF8B504460D46286824
:1052F000002801D10720F8BD2868206000BF0121E7
:10530000684681700E49018000BF221D6946012058
:10531000A0DF0646002E01D03046ECE72046FFF71E
:1053200078FFE8E738B504460D4601200090E08894
:105330002B466A460021A5DF38BD0000062A000082
:10534000021800001CB50446002000906946087150
:105350002046226890471CBD38B504460D46012002
:10536000009060892B466A460021A5DF38BDFEB556
:1053700004460D466F7B082F14D10020009001A930
:105380002046FFF7E9FF0646002E04D16946204675
:105390002268904705E06068002802D030466168C6
:1053A000884700BFFEBD7CB504460D46A87900289D
:1053B00006D100906946087120462268904700BFD8
:1053C0007CBD70B505460C462088102804D01128F5
:1053D00006D017280ED108E02846FFF7B3FF0AE0F1
:1053E00021462846FFF7C3FF05E021462846FFF780
:1053F000DAFF00E000BF00BF70BD30B58FB00546DA
:105400000C461C2108A803F0A8FA08A8007802217D
:105410008843811C08A8017000780821884308305F
:1054200008A90870002009900B900C900D900E9028
:1054300000BF0121684681722E49018100BF002012
:105440000190617A68460171A17A417180790621E3
:105450008843811C68468171807908218843014610
:1054600068468171807910218843014668468171C0
:1054700080794108490068468171142103A803F02E
:105480006CFA217A009102A8039001A804900121EE
:10549000684681820021C182012101830790288909
:1054A0002B460A3303AA08A9A2DF0FB030BDF8B516
:1054B00004460D462868002801D10720F8BD286859
:1054C00020606868606000BF0121684681700A49F9
:1054D000018000BF2246083269460120A0DF06464F
:1054E000002E01D03046E9E729462046FFF785FF28
:1054F000E4E70000062A0000031800008A884282C0
:1055000070470022D24342827047F8B504460E46E7
:10551000207D002820D0B51D2988608981421AD1BC
:10552000288B022817D12068002814D000BF00BFA4
:10553000A97EEA7E120211430846C107C90F00295D
:1055400002D00020009001E0012000906946204632
:105550002268904700BF00BFF8BD70B505460C46F5
:105560002088102804D0112807D050280FD109E036
:1055700021462846FFF7C2FF0AE021462846FFF7EA
:10558000C0FF05E021462846FFF7BFFF00E000BF4F
:1055900000BF70BDF0B591B004460D46207D0028D7
:1055A00019D00020099000BF08A80079010909015D
:1055B000491C08A801710079F0218843103008A91E
:1055C000087100BF697B08A8417180790621884372
:1055D000801C08A988711C210AA803F0BEF908A83C
:1055E000007A02218843811C08A80172007A1021E8
:1055F0008843217D002901D0012100E0002109011B
:1056000010221140084308A9087200200B900D9049
:105610000E90207D002801D009A800E000200F9006
:105620000020109000BF0121684681737749818175
:1056300000BF00200290A97B68460172E97B41729D
:10564000807A06218843811C68468172807A08210D
:105650008843014668468172807A1021884301465A
:1056600068468172807A4108490068468172297BC8
:105670000191142104A803F070F903A8049002A872
:105680000590012168460183002141830121818326
:1056900001A80890A088A31D04AA0AA9A2DF0646B3
:1056A000002E02D0304611B0F0BDA86800284DD0C1
:1056B00000BF0121684681735549818100BF0020E8
:1056C0000290287C6946087200BF6846407A01094A
:1056D000090168464172407AF02188436946487260
:1056E00000BF6846807A06218843811C6846817223
:1056F000807A08218843014668468172807A1021A9
:105700008843014668468172807A410849006846AC
:105710008172A96800F05EFC0746142104A803F01A
:105720001CF903A8049002A805906846078300218D
:105730004183018B81830890E08822460E3204A9C0
:10574000A3DF0646002E03D03046ACE70020E08100
:105750000020A8E7F8B504460D4628682060002020
:10576000C043608228792075FF20207400BF01218A
:10577000684681702749018000BF221D69460120CB
:10578000A0DF0646002E01D03046F8BD294620464F
:10579000FFF700FFF9E733B585B004460025207C0C
:1057A0006946097E88422FD0012104916846007E17
:1057B0002074E08806AB04AA0021A4DF0546002D72
:1057C00002D0284607B030BD608A1349884219D0FC
:1057D000207D002816D000200090019002900390B8
:1057E00001210491E1886846018001218170002136
:1057F000818004A8029006A80390608A6946A6DF0B
:10580000054600E0082500BF2846DBE7192A00000E
:10581000082900000F180000FFFF0000024608687A
:10582000002801D107207047086810604868506060
:105830000020C04350810020108100BF01206D4B2B
:1058400098706D48188000BF0020ECE738B504461A
:105850000D46A888608100BF0121684681706749B4
:10586000018000BF60896A46012180DF38BDF8B53C
:1058700005460C460026E088002802D12089002831
:1058800006D101200090694628462A68904706E024
:1058900027460E376889394682DF064600BF304604
:1058A000F8BDF8B506460F46F88800282ED13D46CB
:1058B0000835002425E04F4881780A206043AA1C5F
:1058C0008018807881421BD14A4801880A206043B1
:1058D000105A814214D10A206043A91C4018007953
:1058E0004007C00F0BD00A20604340180089308168
:1058F000002000906946304632689047F8BD03E0CA
:10590000641C2888A042D6DC00BF00BF01200090A4
:10591000694630463268904700BFEFE738B5044625
:105920000D460020C04360812089002808D0022055
:10593000009069462046226890470020208100BFE1
:1059400038BD70B504460D4600262888102806D0BC
:10595000112815D0302808D0322816D10BE029465E
:105960002046FFF773FF064610E029462046FFF762
:105970007EFF06460AE029462046FFF792FF05E033
:1059800029462046FFF7CAFF00E000BF00BF002EF7
:1059900005D06068002802D030466168884770BD35
:1059A000FEB507460C4615461E46002000900190A5
:1059B0000290684644800221017000218180C580E8
:1059C00002966946384687DFFEBD13B5044600BF20
:1059D0002089002801D0012000E00020002801D10A
:1059E00005201CBD2189608901AB0122FFF7D8FF8A
:1059F000F7E7000034200020062A0000021800000B
:105A0000FEB505460E4614462078801C1F21081A54
:105A100080B200902178891C881969466DDF019059
:105A20000198002801D00198FEBD2879002808D0EF
:105A3000287969460988884203DA2879009008277E
:105A400000E0092768460088401CC1B22278501C3B
:105A50002070B1542178481C207077542178684612
:105A60000088081820700020DEE7F8B505460C46CF
:105A70002078001D1F2801DD0C20F8BD684669DF75
:105A80000646002E01D03046F7E703212278501C4D
:105A90002070A95419212278501C2070A954207814
:105AA00041196846008800F08AFA21784018207071
:105AB0000020E2E7F8B505460F4616461C46686822
:105AC000002801D10720F8BD2078801C29884018C3
:105AD0001F2801DD0C20F6E72878401CC1B222788F
:105AE000501C2070B1542178481C207077542A88AB
:105AF00023789819696802F0D1FE20782978401837
:105B000020700020DFE730B503461078C01C1F2846
:105B100001DD0C2030BD02241578681C10704C5536
:105B20000A241578681C10704C551578681C107084
:105B30004B550020EEE7FFB587B006461D46109C8A
:105B40000020069020780590002747E0B900706893
:105B500041180A886846028149884181002203A9C8
:105B600002A854DF04900498002802D004980BB0D7
:105B7000F0BD6846017B099881422ED10698002825
:105B800001D0002000E00220019020786946097BC6
:105B90004118019808181F2801DD0C20E7E7069836
:105BA000002809D12078401C20702278511C0898C8
:105BB0002170A854012006902078421903A902A858
:105BC00054DF04900498002801D00498CFE720788F
:105BD0006946097B4018207000BF7F1C3088B8429E
:105BE000B4DC0698002806D021780598401C081AD5
:105BF000C1B2059829540020B9E7FFB581B0074626
:105C000015460A9E009602223846049B0299FFF729
:105C100092FF0446002C02D0204605B0F0BD00964D
:105C2000102229463846049BFFF785FF0446002CC6
:105C300001D02046F1E70020EFE70146088806285A
:105C400008DB08881922D201904205DD0888E04A65
:105C5000904201D0072070474888062808DB488812
:105C60001922D201904205DD4888D94A904201D0DC
:105C70000720F0E70888D64A904208D0488890422A
:105C800005D008884A88904201DD0720E3E700201C
:105C9000E1E7F8B506460D4614462078801D1F281A
:105CA00001D90C20F8BD3046FFF7C7FF0746002F8B
:105CB00001D03846F6E705212278501C2070A954FF
:105CC00012212278501C2070A95422785119308852
:105CD00000F075F9217840182070227851197088E9
:105CE00000F06DF92178401820700020DAE7F8B54F
:105CF00005460E4614462879801CC7B22078801CC1
:105D0000C0191F2801DD0C20F8BD781CC1B2227813
:105D1000501C2070B154FF212278501C2070B154C7
:105D200022789119288800F04AF9217840182070CB
:105D3000A88800280EDDA868002801D10720E3E725
:105D4000AA8823789819A96802F0A8FD20782979F3
:105D5000401820700020D7E7FEB507460E461446CF
:105D6000786B002801D10720FEBD0020019032E0B1
:105D7000796B0C22019850430D182879801CC0B211
:105D800000900098401CC1B22278501C2070B15481
:105D900016212278501C2070B1542278911928883D
:105DA00000F00DF9217840182070A88800280EDD39
:105DB000A868002801D10720D6E7AA882378981977
:105DC000A96802F06BFD20782979401820700198AD
:105DD000401CC0B201903820C15D01988142C7DCEF
:105DE0000020C1E7F8B504460F46164600250020FE
:105DF00030702068002809D0324639462046FFF727
:105E0000FFFD0546002D01D02846F8BD6079002829
:105E100008D031463846FFF728FE0546002D01D050
:105E20002846F2E7208900280BDD33463A46012157
:105E300020460830FFF73EFE0546002D01D02846DB
:105E4000E3E7206900280BD000202169085632467C
:105E50003946FFF758FE0546002D01D02846D4E705
:105E6000A08A00280CDD3B46062202212046143081
:105E70000096FFF7C2FE0546002D01D02846C4E774
:105E8000A08B00280CDD3B460722032120461C3056
:105E90000096FFF7B2FE0546002D01D02846B4E774
:105EA000A08C00280CDD3B4615221421204624300E
:105EB0000096FFF7A2FE0546002D01D02846A4E774
:105EC000E06A002809D032463946E06AFFF7E1FE71
:105ED0000546002D01D0284697E7206B002809D001
:105EE00032463946206BFFF702FF0546002D01D0F0
:105EF00028468AE73820005D002809DD3246394609
:105F00002046FFF729FF0546002D01D028467CE7F3
:105F100028467AE701460889002807D0C868002883
:105F200004D0C86800780422104201D107207047CD
:105F30000020FCE701460889002801DD07207047A2
:105F40000020FCE7F3B593B00D46002112911191AA
:105F50001398002814D01398FFF7DCFF0446002C98
:105F600002D0204615B0F0BD12AA09A91398FFF778
:105F700039FF0446002C01D02046F3E709AE00E0CB
:105F80000026002D13D02846FFF7D4FF0446002C2E
:105F900001D02046E6E711AA01A92846FFF722FF13
:105FA0000446002C01D02046DCE701AF00E00027CA
:105FB00010A803793A46017A304662DFD2E70246FA
:105FC0000A70FF2000021040001248700220704743
:105FD000FFFF0000F8B505460E4600243278214642
:105FE000641C6A5472782146641C6A5400BF022CF7
:105FF00001D1012000E000200746002F05D100BF9D
:1060000008A21B21FEF74CF900BF00BF2046F8BDD7
:1060100070B504460D46284602F01EFC20806560DF
:1060200070BD00002E2E5C2E2E5C2E2E5C536F75E4
:106030007263655C626C655C626C655F73657276E9
:10604000696365735C626C655F7372765F636F6DC5
:106050006D6F6E2E6300000001464888B74A1288B3
:10606000904206DB4888B54A5288904201DC012004
:1060700070470020FCE738B50546B1480088B149B3
:1060800088423BD0B0480078401CAF490870AF4808
:10609000007B097888420FDBA849A948008865DFA2
:1060A0000446002C07D0A9488069002803D0A748DF
:1060B00081692046884721E00020A3490870A34851
:1060C000007C00280FD03B219D48008866DF0446F5
:1060D000002C07D09D488069002803D09B48816927
:1060E0002046884700BF99484069002806D0002014
:1060F0000090964841696846884700BF38BD70B532
:1061000005461C2229469148FEF73EF8002090499A
:106110000870286800280BD008228848296802F0F7
:10612000BDFB86486ADF0446002C08D0204670BDBF
:1061300082486BDF0446002C01D02046F7E70020A0
:10614000C0437F49088000207F490870814A0021B0
:10615000814800F05DFDEAE710B57F48006800F077
:10616000CFFD10BD38B57D48FFF776FF002829D157
:106170007748007800280AD074484069002820D069
:1061800000200090714841696846884719E06E48D0
:106190000078002802D16D48456801E06B488568A9
:1061A000002229466C48006800F079FD0446002C66
:1061B00007D066488069002803D06448816920467A
:1061C00088470AE061484069002806D00120009015
:1061D0005E4841696846884700BF00205C490870F6
:1061E00038BD10B50446A0885549088008222146CC
:1061F0000E315A4802F052FB0020534908705348B0
:10620000C089002801D1FFF7ADFF10BD70B505466C
:106210000020C0434A49088000204B4908704E487E
:10622000006800F06DFD0446002C07D047488069E7
:10623000002803D0454881692046884770BD70B565
:106240000546AC1D20884149C989884220D1208B50
:1062500002281DD100BF00BFA17EE27E12021143C1
:106260000846C107C90F002902D0FFF77BFF0FE0E6
:106270003948006800F044FD0646002E07D0334838
:106280008069002803D0314881693046884700BFC3
:1062900070BD10B504460822A11D304802F0FEFA78
:1062A000FFF760FF10BD10B504462088102806D007
:1062B000112808D012280ED0502810D107E020460F
:1062C000FFF78FFF0CE02046FFF7A0FF08E0204615
:1062D000FFF7B5FF04E02046FFF7DBFF00E000BF5B
:1062E00000BF10BD38B5044608222146134802F00D
:1062F000D5FA12486ADF0546002D1CD11748FFF772
:10630000ABFE00280BD10120114908700B490C4845
:10631000008865DF054601200B4908700BE00B483B
:106320004069002806D0012000900848416968466D
:10633000884700BF0025284638BD00003A200020CD
:1063400044200020FFFF000042200020B024002055
:1063500038200020776001005020002046200020D7
:1063600010B5002819DAFE4A03071B0F083B9B08EB
:106370009B00D2588307DC0EFF23A3409A438B0770
:106380001B0E8407E40EA3401A43F54B0407240FA9
:10639000083CA408A4001A5118E0F24A03231B0287
:1063A000D21883089B00D2588307DC0EFF23A3403A
:1063B0009A438B071B0E8407E40EA3401A43E94B54
:1063C000032424021B198408A4001A5110BD10B51F
:1063D0000446E548846003211120FFF7C1FF10BD8A
:1063E00010B501200004E1494860E04940394860A7
:1063F000112000F0D0FC112000F0BFFC0120DC498E
:1064000008602F20FDF7B0FE10BD10B5112001214E
:106410008140D44A8032116000BF01200004D3497A
:106420008860D249403988600120D14948602F20D6
:10643000FDF79AFE10BDF0B5024628205043CD4B23
:106440001B68C118CC480068401C02D1CA480260D1
:1064500057E0C9488B68006828246043C54C24680D
:1064600000198068834217D8C3480068282358431E
:10647000C04B1B68C01880688B68C31ABE48006890
:1064800028246043BB4C246800198360BA48006824
:106490004862B948026034E08B68B74D2C682868C0
:1064A0000DE028254543B34E3668AD19AD685B1B3A
:1064B000044628254543AF4E3668AD19686A451C29
:1064C00007D028254543AB4E3668AD19AD689D42CF
:1064D000E7D3451C0CD028254543A64E3668AD1998
:1064E000AD68EE1A28254543A24F3F68ED19AE600E
:1064F0008B604862282565439E4E3668AD196A62F6
:1065000000BFF0BD70B502469B4C2168084609E00B
:10651000904200D108E0014628244443954D2D685F
:106520006419606A441CF3D100BF441C00D170BDE3
:10653000814209D1904C246828256C438D4D2D68EB
:106540006419646A8C4D2C6028244443894D2D685D
:106550006419A36828244443864D2D686419656A2C
:1065600028244C43834E3668A419656228244C4382
:10657000804D2D686419606A441C0CD02824444363
:106580007C4D2D686419A468E51828244443794E8D
:106590003668A419A56000BFC9E710B5112000F046
:1065A000F3FB10BD10B5142000F0EEFB10BD70B56C
:1065B000044672480068002813D0704A216AE069D6
:1065C00012689047054600BF2E46002E07D000BF38
:1065D0006BA2FF2155313046FDF762FE00BF00BFC0
:1065E00002E0E169206A884770BDF8B5624800683A
:1065F000401C39D0002700F000FC04466A480168BE
:10660000204600F0FDFB06465B48056811E02820A7
:106610006843584909684418A068B04200D90AE0A4
:10662000A068361AA068C719656A2046FFF7BFFF41
:1066300000BF681CEBD100BF5C4800785C4909785A
:10664000884209D15A480078401CC0B258490870A5
:10665000022801D100200870554800788000554973
:106660000F50FFF79FFF00BFF8BD01464F4800786D
:106670004F4A127890421DD04C480078401C4B4A3B
:10668000107010460078022801D100201070474891
:1066900000788000474A10580860434A086812682A
:1066A0008018414A1060104600680002000A10601D
:1066B000012070470020086000BFFAE7FEB52E48B1
:1066C000006801903C48007800903FE00098C000CE
:1066D0003A4909684418257834E01820684361680D
:1066E0000F18681CC5B2A078A84200D100253868F0
:1066F000022802D0032822D10EE0282178684843DE
:106700001C4909684618307E002804D07868FFF7D5
:10671000F9FE0020307613E00CE0174909682822C2
:106720005143144A1268881800210176124A416ABE
:10673000116000BF10480068401CEED100E000BFAF
:1067400000BF00BF6078A842C7D100BF0098411EBB
:10675000C9B200910028B9D10748016801982FE01B
:106760001CED00E000E100E0001501404013014095
:1067700000100140542000206020002074200020E0
:106780002E2E5C2E2E5C2E2E5C536F757263655C14
:106790006170705F636F6D6D6F6E5C6170705F7460
:1067A000696D65722E630000642000207020002057
:1067B0007120002068200020592000205C2000204B
:1067C000814201D00120FEBD0020FCE7F0B5034668
:1067D000002426E0FE4E366828277E43FD4F3F68A2
:1067E000F01986689E4203D98668F61A86601CE016
:1067F00086689B1B86683419002686600676F44EF0
:106800003568F34F466A3E604669002E08D00E197F
:106810003602360AC6604669066116684662156029
:1068200000BFEB480068401CD4D100BFF0BDFEB5EE
:106830000746E74800680290E7480078019069E061
:106840000198C000E549096845185CE0781C07D04C
:106850003E4628207043DF4909684418676A23E0F0
:106860002978182359436A6850182978491C2970D7
:106870002978AA78914201D10021297046682821FF
:106880007143D44A12688C180168012902D1217E13
:10689000002900D037E08168E160C16821610169A9
:1068A00061614169216200BFCD49E0680968401A11
:1068B0000002000ACB49884208D2C949E068096849
:1068C00000F09EFA21694018A06011E0C448E16818
:1068D000006800F095FA009021690098814204D97F
:1068E00021690098081AA06001E00020A06000BFA4
:1068F0000020E060206101202076801E606230462A
:10690000FFF799FD00BF781CA0D1287869788842EC
:106910009CD100BF0198411EC9B2019100288FD1BE
:10692000AB4801680298814201D00120FEBD0020E1
:10693000FCE7FEB50546A6480068401C34D0A448D4
:10694000006828214843A34909684018866800F078
:1069500054FA0290A24804682146029800F050FAC6
:10696000C01C0190681C01D1FFF73AFD0198B042AC
:1069700001D2304600E0019804192402240A20467E
:106980009949086000BF00F038FA00900299009819
:1069900000F036FAC71C2046029900F031FA87420F
:1069A00001D9FFF7FAFD01E0FFF72FFDFEBDFEB5AF
:1069B0000020C04301908A480468854807686846FB
:1069C000FFF753FE0546FFF779FE0646002D05D07A
:1069D00001AA21460098FFF7F9FE01260198FFF76A
:1069E00026FF002800D00126002E02D03846FFF7EF
:1069F000A0FFFEBD4170704770B502460B4650784F
:106A0000411C9078884200D100211078884201D141
:106A1000002070BD196050781826704355682C18F6
:106A20002046F6E7FFB581B005460E461746E90059
:106A30006A4A126888186946FFF7DEFF0446002C90
:106A400002D1042005B0F0BD01202060666000F096
:106A5000D4F9A060E760049820610A986061E900B9
:106A60005E4A126888180099FFF7C4FFFFF79AFD85
:106A70000020E7E7F8B504460E46E100574A1268E1
:106A800088186946FFF7B8FF0546002D01D104209C
:106A9000F8BD022028606E60E100504A1268881834
:106AA0000099FFF7A7FFFFF77DFD0020F0E738B55D
:106AB0000446E100494A126888186946FFF79CFFBE
:106AC0000546002D01D1042038BD03202860001F99
:106AD0006860E100414A126888180099FFF78AFF50
:106AE000FFF760FD0020EFE710B500203F49086088
:106AF00000213E4841608160C16000203B4940392F
:106B000008604860FFF771FD10BD10B5FFF74FFF3B
:106B100010BDFFB581B00E4617461C4620468107C2
:106B2000890F01D1012100E00021002902D10720B5
:106B300005B0F0BD002C01D10720F9E7FFF765FC97
:106B40002B490A9808602B480670224804600025EB
:106B50000CE00021282068431E4A126811502820AA
:106B600068431C4A1268801801766D1CB542F0DB40
:106B7000282070430419032017490870174804603F
:106B8000183400250CE0E900144A12688818002126
:106B90000170417087704460182179430C196D1C95
:106BA000032DF0DB0020C043094908600020124992
:106BB000087012490870142000F0EDF80321142029
:106BC000FFF7CEFB142000F0D8F8019818E0000081
:106BD0006020002054200020592000205C2000204C
:106BE00064200020FFFF7F0040150140401101405C
:106BF00074200020582000207020002071200020E8
:106C0000FFF7E5FB00F0F9F88049086000208FE706
:106C100070B503460C467E480068002801D1082064
:106C200070BD002A01D10720FAE7002B01D107200F
:106C3000F6E700211CE028204843754D2D682858B0
:106C4000002814D1012528204843714E366835505C
:106C5000282048436E4D2D68401944602820484341
:106C60006B4D2D684019C26119600020D8E7491C9E
:106C7000684800788142DEDB0420D1E710B500F0DF
:106C800092F8012802D0032804D101E0002403E097
:106C9000012401E0022400BF00BF204610BDFEB564
:106CA00004460D4616465A480068002801D10820BF
:106CB000FEBD58480078844201D2052D01D207203C
:106CC000F6E728206043524909680858012801D096
:106CD0000820EDE7282060434D49096840184068C6
:106CE000012801D1284600E000200746FFF7C6FF33
:106CF0003B462A46214600960190FFF793FED7E7D0
:106D000070B5044642480068002801D1082070BDD3
:106D100040480078844201D30720F8E728206043E8
:106D20003B4909680858012801D00820EFE7FFF720
:106D3000A5FF05462146FFF79DFEE8E710B534485C
:106D40000068002801D1082010BDFFF797FF044616
:106D5000FFF7ADFEF8E710B5044600F04EF82060EE
:106D6000002010BD70B505460E4614463146284633
:106D700000F046F82060002070BDC206D20E01214E
:106D80009140254A11607047C206D20E0121914000
:106D9000224A11607047C206D20E012191401F4A5B
:106DA00080321160704710B51D484068C105C90D9B
:106DB000002920D00A46103A104600280DDA184B58
:106DC0001C330407240F083CA408A4001B598407A3
:106DD000E40EE3401B069B0F0BE00F4B0324240241
:106DE0001B198408A4001B598407E40EE3401B060A
:106DF0009B0FD8B210BD0420FCE70A4840687047DA
:106E00000246501A0002000A704700006420002069
:106E1000542000205820002000E100E000E200E0C3
:106E200000ED00E00015014070B506460C46154621
:106E300029462046FDF735FA70BDFFB581B00C46F6
:106E400016461F4620468107890F01D1012100E027
:106E50000021002902D1072005B0F0BD002C01D18E
:106E60000720F9E726480460264806802648076080
:106E700026490A980860052001902549019810DFED
:106E80000546002D01D02846E6E7162023DFE3E77C
:106E900038B500BF1B480088009069461848006854
:106EA00050DF0446052C00D10EE0002C06D000BFB8
:106EB00018A260212046FDF7F3F900BF10480068D2
:106EC000114909688847E5E700BF38BD70B50F482C
:106ED0000068002810D00D4800688047044600BFB5
:106EE0002546002D06D000BF0AA272212846FDF7D4
:106EF000D7F900BF00BF01E0FFF7CAFF70BD000077
:106F00008020002084200020782000207C20002089
:106F1000296E01002E2E5C2E2E5C2E2E5C536F757A
:106F20007263655C626C655C626C655F73746163FF
:106F30006B5F68616E646C65722E63000246100CB4
:106F40000004FA4B984202D10A8000207047501C7E
:106F500001D10520FAE70B20F8E770B505460121BD
:106F60000907096988B2502101F0F9FCF049097854
:106F7000884201D8042070BDED480078002810D167
:106F800000221146104600F08BFFEA490880EA49CA
:106F90000878EA4901F08FF80446002C01D0204619
:106FA000E9E713222946E5480068001D00F0F0FFDC
:106FB0000446002C01D02046DDE7DE4A4C2128465D
:106FC00000F06EFFDB49088008460088D74A10436E
:106FD0000146DA48006800F0D2FF0446002C01D0D8
:106FE0002046C8E7D54800685030D4490860D048EA
:106FF0000078401CCE4908700020BCE770B50546FB
:1070000001210907096988B2502101F0A8FCCC4987
:107010000978884201D8042070BDC948007800284A
:1070200010D100221146104600F03AFFC5490880F1
:10703000C1494878C44901F03EF80446002C01D00B
:107040002046E9E706222946BF480068001D00F0F7
:107050009FFF0446002C01D02046DDE7B94A1821E5
:10706000284600F01DFFB749088008460088AF4A4F
:1070700010430146B448006800F081FF0446002C2C
:1070800001D02046C8E7B04800681C30AE4908600F
:10709000AB480078401CAA4908700020BCE738B50E
:1070A0000546A3480078002810D10022114610465A
:1070B00000F0F6FE9F4908809F4908789F4900F03C
:1070C000FAFF0446002C01D0204638BD9B490968D0
:1070D00008686946FFF732FF0446002C01D02046BD
:1070E000F3E74C2295480168091D2846FDF74CF846
:1070F000904A4C21284600F0D3FE8E49088008466D
:1071000000886946098888420BD189480078401C6C
:107110008749087089480068503088490860002015
:10712000D3E70B20D1E738B505468548007800281D
:1071300010D100221146104600F0B2FE81490880AD
:107140007D494878804900F0B6FF0446002C01D004
:10715000204638BD7C49096808686946FFF7EEFE9D
:107160000446002C01D02046F3E718227648016837
:10717000091D2846FDF708F8724A1821284600F034
:107180008FFE704908800846008869460988884251
:107190000BD16B480078401C694908706A48006848
:1071A0001C30694908600020D3E70B20D1E710B5F7
:1071B0006149087800F0FEFE0446002C01D020460C
:1071C00010BD5D49487800F0F5FE0446002C01D062
:1071D0002046F5E70020F3E738B5002211461046B7
:1071E00000F05EFE0090002409E064216143574AEC
:1071F00088186A464C2100F053FE0090641C5448E5
:1072000000788442F1DB684600884A490988884250
:1072100001D0012038BD0020FCE738B5002211461E
:10722000104600F03DFE009000240BE06421614315
:10723000464A891808464C306A46182100F030FE4C
:107240000090641C424800788442EFDB6846008866
:107250003C490988884201D0012038BD0020FCE764
:1072600070B505463B48006E002808D03948006ECE
:107270000E2801D9032070BD364C503400E00024A4
:1072800034484C30808A82B2214633480088A9DFD6
:10729000F1E710B500210020304A1070304A10701C
:1072A00036E064224A43294BD018427A5207D20F63
:1072B00016D04222125C022A12D1027852B2284B16
:1072C0001B78DB00274CE25402461E32244B1B780D
:1072D000DB001B195A60224A1278521C204B1A708C
:1072E0004222125C022A12D0027852B21B4B1B7847
:1072F000DB001D4CE25402464232184B1B78DB0087
:107300001B195A60154A1278521C144B1A70491CEA
:107310000F4800788142C4DB10BD7CB505460C489F
:107320000078072822DB04207CBD00000000DE4539
:107330009C20002090200020042500209420002084
:107340009D200020922000209820002074250020FD
:107350008C200020102500208A2000208D20002075
:107360008E20002068280020302800203222294664
:10737000FE4801F093FAE988FC48001FC18700210C
:107380000166FB480078F949091F0860F849097847
:10739000F74A1278521CF64B1A7064225143F54A90
:1073A00088186422F149091FFCF7EEFEFFF771FF10
:1073B0000120F149087000221146F0480088A9DF39
:1073C0000446002C01D020467CBDE848001FFFF792
:1073D000C4FD0446042C15D1E9484068002811D0AA
:1073E00004200090E148001F007841B26846017116
:1073F000DE48001FC18F6846C180E1484168684689
:10740000884703E0002C01D02046DDE7DC484068D7
:10741000002811D000200090D448001F007841B20D
:1074200068460171D148001FC18F6846C180D448A9
:1074300041686846884700BF0020C5E770B5CB4863
:10744000001F0468002C23DBC948007884421FDA3F
:10745000C9480078002808D064216143C54A8818CB
:107460004C22C249091FFCF78FFEC648007800284D
:107470000AD064216143BF4A891808464C3018225B
:10748000BA494831FCF780FEFFF703FF002500E012
:107490000325284670BD70B50546002412E064201F
:1074A0006043B4494018C08FA8420AD164206043A9
:1074B0000A4681186422AD48001FFCF765FE0020D3
:1074C00070BD641CAA4800788442E8DB0520F7E719
:1074D00070B594B00020A64908702FE001A8FFF70E
:1074E000DEFD0546052D00D12CE0002D02D02846FA
:1074F00014B070BD019E9E480078864201DD0B20CD
:10750000F6E7642171439B4A88184C2201A9FCF7D5
:107510003BFE9748007886420FD1002164207043DB
:10752000944A80180166491E642070438018C16423
:107530008F480078401C8E49087000BF8C48007846
:107540000728CBDB00BF00241DE00EA8FFF7EBFDF2
:107550000546052D00D11AE0002D01D02846C7E7C9
:10756000834909780E98884201DD0B20C0E7642228
:107570000E9951437F4A891808464C3018220EA9AB
:10758000FCF702FE641C7A4800788442DDDB00BF11
:107590007748047810E00021C94364206043754AAD
:1075A000115000216420604380180166491E642048
:1075B00060438018C164641C072CECDBFFF769FE94
:1075C000002095E77CB50446A0886C49088000201F
:1075D000C0436649091F08600722A11D63483E3069
:1075E00001F05CF900216148001F0166607BC00763
:1075F000C00F1AD0607B4508072D04DAE800624905
:107600000856072804DB5E488168032088470BE0A2
:10761000E8005D4A105664225043564A811864229D
:107620005248001FFCF7B0FD21E0002519E0E800FA
:1076300056494018466806224C493F31701C01F0FB
:10764000DDF800280CD1E800504A1056642250435F
:10765000484A811864224548001FFCF795FD04E064
:107660006D1C4B4800788542E1DB00BF00BF3F48FE
:10767000001F0068401C1AD000203F490870414993
:1076800008703F484068002811D00120009037481A
:10769000001F007841B2684601713448001FC18F55
:1076A0006846C180364841686846884700BF7CBD4F
:1076B00070B505462D48001F0068401C03D03548B2
:1076C0000078002806D1002211462C480088A9DF46
:1076D000044609E02548001FFFF7C2FD0446002CC0
:1076E00002D1012027490870002C03D0244881686A
:1076F0002046884770BD7CB50446322221461B488F
:1077000001F0CCF8E1881948001FC187002101660B
:107710000E21503001F021F915490978491E6422E3
:107720005143144A8818642101F017F90F49091FC1
:107730000968642251430F4A881864220B49091FC3
:10774000FCF722FD002211460C480088A9DF0748FB
:10775000001FFFF702FC0546042D2BD108484068A6
:10776000002827D004200090004815E014250020B0
:107770008C200020742500209F2000208A200020DB
:1077800004250020A02000206828002030280020A8
:107790008D2000209E200020001F007841B2684606
:1077A0000171FE48C18F6846C180FD484168684646
:1077B000884705E0002D03D0F948816828468847AE
:1077C000F748406800280FD003200090F348007865
:1077D00041B268460171F148C18F6846C180F048E6
:1077E00041686846884700BF7CBD70B5054628786B
:1077F000002800D070BDEB480078002800D1F9E7E0
:10780000E6480068411C13D1E449C88FFFF743FEE6
:107810000446002C01D10F2403E02846FFF77DFD2C
:107820000446002C03D0DE4881682046884705E0E6
:107830000120DD4908702846FFF75DFF00BFD9E74A
:1078400070B50546E889FFF726FE0446002C10D1E6
:107850000120D54908700022D0490A31D348008858
:1078600071DF0446002C1ED0CD4881682046884731
:1078700019E0052C17D10C22A91DC848363001F09B
:107880000DF800221146C948008871DF0446002C1B
:1078900003D0C34881682046884700221146C34868
:1078A0000088A9DF0446002C03D0BD48816820462B
:1078B000884770BDFEB5044620780607360F20784D
:1078C0000709012E01D1012F03DC022E29D1002F3F
:1078D00027D000BF0120B349087000BFAF48FFF7B1
:1078E000BFFC0546002D04D0AD4881682846884776
:1078F00002E00120AE490870A948406800280FD076
:1079000002200090A548007841B268460171A34862
:10791000C18F6846C180A24841686846884700BF59
:1079200000BFFEBD10B50446A2480078002803D170
:107930009B48816808208847208817281AD006DCD1
:10794000102809D011280BD014281FD116E01828B0
:1079500018D052281AD109E02046FFF733FE16E06E
:1079600000BF00208F49087000BF10E02046FFF7DD
:107970009FFE0CE0A01DFFF738FF08E02046FFF750
:107980005FFF04E0A01DFFF795FF00E000BF00BF10
:1079900010BD38B500BF87480078002801D1082005
:1079A00038BD00BF7D480068401C1CD00E200090F0
:1079B0006A467A4950317D480088AADF0446002C87
:1079C00001D02046ECE7754800687449C8646846F1
:1079D000018872480166FFF731FD0446002C01D092
:1079E0002046DDE700BFFFF7F7FB00281DD06C49FC
:1079F000087800F0DFFA0446002C01D02046CFE7DB
:107A000000206D49087000250BE0642169436B4A32
:107A10008818FFF7A2FA0446002C01D02046BFE7E1
:107A20006D1C674800788542EFDBFFF7F6FB002806
:107A30001FD05B49487800F0BDFA0446002C01D005
:107A40002046ADE700205F49087000250DE0642165
:107A500069435A4A891808464C30FFF7CFFA044662
:107A6000002C01D020469BE76D1C554800788542CC
:107A7000EDDB0020C0434D49088048490860C864D8
:107A800000214648016600204749087048490870AF
:107A900000BF85E738B54148006E002826D10E208A
:107AA00000906A463D49503140480088AADF0446AC
:107AB000002C01D0204638BD384800683749C864DA
:107AC00068460188354801660146096864225143C9
:107AD0003A4A891808464C30182230494C31FCF794
:107AE00053FB2E484C30FFF789FAE4E70820E2E721
:107AF00010B500BF2F480078002801D1082010BD24
:107B000000BF00202E4908702B4908702D490870CD
:107B1000FFF74DFBF3E770B504460D46601C0DD032
:107B200027480078844209DA002D07D0642060439A
:107B30002249401840308078022801D1072070BDCA
:107B4000642060431D4A80180146423107222846BE
:107B500000F0A4FE0020F2E710B50246002107E085
:107B6000C800194BC01840688B00184CE050491CE5
:107B7000174800788142F3DB002107E0C800154B6D
:107B8000C01840688B00144CE050491C1348007822
:107B90008142F3DB11480078107121E010250020AC
:107BA000042500209E2000209F2000208A20002005
:107BB000A0200020882000209C2000207425002088
:107BC0008C2000209D20002068280020E824002030
:107BD0008E20002030280020CC2400208D20002082
:107BE000A0480078002801D09F4800E000201060E5
:107BF0009E48007810739D480078002801D09C486A
:107C000000E000209060002010BD70B50546A86817
:107C1000002801D1072070BD01210907096988B238
:107C2000502100F09CFE072801D20C20F3E7914878
:107C300029460EC90EC064218F4800F08EFE002038
:107C4000C0438D4908608D49088000208C49087028
:107C50008C4908708C49087000BF8C49087000BFBF
:107C600084488078002806D0FFF7A1FA0446002C4B
:107C700001D02046CFE7FFF72BFC0446002C01D0B3
:107C80002046C8E70120824908700020C3E710B5EC
:107C9000034600BF7E480078002801D1082010BDAF
:107CA00000BF002901D10E20F9E70888744C247820
:107CB000A04201DA0C20F2E7714800780880002B1E
:107CC00001D10020EBE7002200BF07E06420504311
:107CD000704C0019C08F54001853521C684800782B
:107CE0008242F3DB0020DAE7F8B5074600BF6848B8
:107CF0000078002801D10820F8BD00BF0026F64317
:107D000000240AE06420604362494018C08FB842F2
:107D100001D166B205E0601CC4B2594800788442C3
:107D2000F0DB00BF701C01D10520E5E7F4B226E0CE
:107D3000621C64235A43574BD11864226243D01803
:107D40006422FCF721FA6420604352490858401E1F
:107D5000642161434F4A50506420604311464018EB
:107D6000C06C411C09D06420604311464018C06CAF
:107D7000401E642161438918C864601CC4B2404835
:107D80000078401EA042D3DC3D490978491E642298
:107D90005143404A8818642100F0DFFD38480078DC
:107DA000401E37490870334908783B4900F083F991
:107DB0000546002D01D028469EE72E4948783749D0
:107DC00000F079F90546002D01D0284694E7FFF729
:107DD000EEF90546002D01D028468DE700202949FF
:107DE00008702949087000240CE064216143294A85
:107DF0008818FFF7B2F80546002D01D028467BE72A
:107E0000601CC4B21E4800788442EEDB00240EE001
:107E1000642161431F4A891808464C30FFF7EEF889
:107E20000546002D01D0284666E7601CC4B2144800
:107E300000788442ECDBFFF72CFA00205CE7014677
:107E400000BF13480078002801D10820704700BF08
:107E50000E480078002801D0012000E000200870C2
:107E60000020F3E78D200020CC2400208E2000206D
:107E7000E824002004250020102500208A2000206E
:107E80008C2000209C2000209D2000209E2000208F
:107E900088200020742500209420002098200020B5
:107EA00070B503460C46002A01D1894D00E01588C3
:107EB0002846002111E0051206023543A8B25D5C98
:107EC000684005062D0F684005034540A8B2050629
:107ED0002D0D6D0068404D1CA9B2A142EBDB70BDB9
:107EE00002217C4A516000BF7B4909680029FBD010
:107EF0007849886000BF784909680029FBD00021D3
:107F0000744A516000BF744909680029FBD070476A
:107F10000122704B5A6000BF6F4A1268002AFBD0E2
:107F2000016000BF6C4A1268002AFBD00022694B36
:107F30005A6000BF684A1268002AFBD0704770B5CB
:107F400004460D4600E03DDF644800780028FAD181
:107F500001206049486000BF5F4800680028FBD0EE
:107F6000256000BF5C4800680028FBD0002059490C
:107F7000486000BF584800680028FBD070BD70B54D
:107F800004460D4629462046FFF7D9FF002070BD64
:107F9000F8B505460E461746002407E0A000315804
:107FA0002846FFF7CCFF2D1D601C84B2BC42F5DBD8
:107FB0000020F8BD70B5044601200007006980B2BA
:107FC000604305462846FFF78BFF002070BDF7B5DC
:107FD00084B0154601200007006980B20499484327
:107FE00007463C46A90000220598FFF759FF039079
:107FF00020680190019880B202900399029888420B
:1080000002D1002007B0F0BD3846FFF769FF241DFC
:10801000241D002607E0B200059881582046FFF78E
:1080200077FF241D761CAE42F5DB2946381DFFF78D
:1080300086FF2B4903980843019038460199FFF7C2
:108040007EFF0020DEE7F7B586B007461446012024
:108050000007006980B278430490049D286803906B
:108060000398000C000401901D490198884204D037
:1080700000202070052009B0F0BD2D1D287820704B
:108080002D1D2078800005902946059A0798FCF759
:108090007BF82078810000220798FFF701FF064651
:1080A0000F483043029003990298884201D005207E
:1080B000E1E70020DFE7024601200007006980B207
:1080C0005043086000207047044908707047000062
:1080D000FFFF000000E5014000E40140A120002076
:1080E0000000DE4570B504468A480068002812D0BA
:1080F0002178884AA06812689047054600BF2E463E
:10810000002E06D000BF84A229213046FCF7C8F813
:1081100000BF00BF02E02078A168884770BDF1B5BC
:1081200082B00027029C69468548007800F001FB78
:1081300001900198002800D0FEBD8249009809688E
:108140000840074680480068009988430743204656
:1081500038400446002C18D0002511E00C2068435C
:108160007A4909684618317801208840204205D0B4
:10817000B068002802D03046FFF7B4FF681CC5B2D3
:10818000734800788542E9DB00BF00BFD4E770B5D3
:1081900004460D466F480068FEF7B2FD0646002E05
:1081A00000D070BD2046284302466B4801686948EC
:1081B0000068FEF774FD064600BFF2E7FFB583B026
:1081C00005460C461646052E02D2072007B0F0BD24
:1081D0005E4805605E4804705F4806604D49069839
:1081E0000860002057490860574908602CE00C21BE
:1081F000614348190278019241680291029989000D
:108200000522120707231B02D318019A92009950E6
:1082100000BF4178002901D0012100E0002102784F
:108220009140484A12681143464A1160417800293A
:1082300001D1012100E0002102789140424A1268F8
:108240001143414A116000BF2046611ECCB2002894
:10825000CDD1424B3C4802683A480168384800F0AA
:1082600093F90746002F01D03846AFE73C4A00217A
:108270003848FEF7CDFCA9E710B53448006800285F
:1082800001D1082010BD2E48007800F0C2F9F9E7AE
:1082900010B52E480068002801D1082010BD2848DC
:1082A000007800F025FA0446002C01D02046F5E7BE
:1082B00028480068FEF724FDF0E7F8B507460C46AD
:1082C000002622480068002801D10820F8BD694630
:1082D0001B48007800F02DFA0546002D01D02846F5
:1082E000F4E70120B84006460098064208D1164837
:1082F0000068304201D0012000E00020207007E03B
:1083000010480068304201D0012000E000202070B9
:108310000020DBE7B82000202E2E5C2E2E5C2E2EB7
:108320005C536F757263655C6170705F636F6D6DD8
:108330006F6E5C6170705F627574746F6E2E630037
:10834000BC200020B0200020AC200020A420002071
:10835000A8200020C0200020B42000208F81010030
:108360001F81010010B518480078012148401649C6
:10837000087016480068002804D0084600781349A1
:108380000968884710BDF8B505460F4616460F48E0
:108390000660152027DF0446002C01D02046F8BDDA
:1083A0002946152028DF0446002C01D02046F6E798
:1083B000152023DF0446002C01D02046EFE7394684
:1083C000032049DFEBE70000C4200020C820002084
:1083D000F0B502460C46002035E0012383401946E3
:1083E00023460B422ED0D5680D4205D101235B04F4
:1083F000D5680D43D56004E003231B04D5688D4385
:10840000D56005252D0707263602AD198600AD5922
:1084100003263604B5430526360707273F02F6191B
:108420008700F55105252D0707263602AD19860070
:10843000AD591D430526360707273F02F619870069
:10844000F55100BF401C2028C7D3F0BDFEB5E14860
:1084500006690020E049C863002527E0142068432E
:10846000DE49096844180120A840DD49096808422E
:108470001AD0E068C043704021680840074639467A
:108480002046FFF7A5FFA068B04338400090606821
:1084900030403840019000990198084303D0226988
:1084A00000990198904700BF681CC5B2CD4800787C
:1084B0008542D3DBFEBD10B50146002028E0142222
:1084C0004A43C64B1B689A58012383401A421ED068
:1084D0000522120707231B02D2188300D258032358
:1084E0001B049A4305231B07072424021B1984003D
:1084F0001A510522120707231B02D2188300D258F3
:1085000005231B07072424021B1984001A51401C51
:108510002028D4D310BD70B505460C46002C01D1DF
:10852000072070BD20468107890F01D1012100E09D
:108530000021002901D10720F3E7A8480460AA48D8
:1085400005700020A7490870A5490860A648007872
:10855000142250430146A148006800F0FEF90020B3
:10856000C043A2498860062001218140A04A1160D1
:1085700000BF012100F0F7F80620012181409D4A4B
:10858000116000BF0020CCE7F8B504460D46164642
:108590001F4692480068002801D10820F8BD002F2E
:1085A00001D10720FAE78F4800788F49097888427F
:1085B00001DB0420F2E7284630438A490978142277
:1085C0005143864A12685050864800781421484327
:1085D0008249096840184560824800781421484360
:1085E0007E490968401886607E4800781421484317
:1085F0007A490968401807617A48007820707948FC
:108600000078401C774908702078FFF754FF00205D
:10861000C4E7F0B5024671480068002801D108207F
:10862000F0BD70480078824201DB0720F8E70020A7
:10863000694BD8636748046969480068002802D11B
:1086400058066A4B586001209040654B1B681843E0
:10865000634B1860002314205043604D2D6840196F
:10866000C360002140E001238B401846142353438C
:108670005A4D2D68EB58034235D02546054202D0AD
:1086800003231B040EE001235B0414255543534EC2
:108690003668AD19ED680543142656434F4F3F68C1
:1086A000F619F56005252D0707263602AD198E004F
:1086B000AD5903263604B5430526360707273F0282
:1086C000F6198F00F55105252D0707263602AD193D
:1086D0008E00AD591D430526360707273F02F619C0
:1086E0008F00F55100BF491C2029BCD3002097E71B
:1086F00010B5044639480068002801D1082010BD93
:1087000038480078844201DB0720F8E72046FFF76D
:10871000D2FE0120A04032490968814330480160FF
:108720000068002803D10120C0073049886000207C
:10873000E5E710B5024629480068002801D1082065
:1087400010BD28480078824201DB0720F8E714209A
:108750005043224C246803191E4800691C682040BD
:1087600008600020ECE710B5002819DA224A030758
:108770001B0F083B9B089B00D2588307DC0EFF238E
:10878000A3409A438B071B0E8407E40EA3401A43B1
:10879000194B0407240F083CA408A4001A5118E040
:1087A000144A03231B02D21883089B00D258830764
:1087B000DC0EFF23A3409A438B071B0E8407E40EB5
:1087C000A3401A430B4B032424021B198408A40062
:1087D0001A5110BD0005005040610040CC2000201F
:1087E000D0200020D5200020D420002000630040AD
:1087F00080E200E000E100E01CED00E0034610B57F
:108800000B439B070FD1042A0DD308C810C9121FB0
:10881000A342F8D018BA21BA884201D9012010BD6C
:108820000020C04310BD002A03D0D30703D0521C40
:1088300007E0002010BD03780C78401C491C1B1B6E
:1088400007D103780C78401C491C1B1B01D1921ED8
:10885000F1D1184610BD000030B5441C03E001788A
:10886000401C00290DD08107F9D10B4BDD0104C854
:10887000D11A91432940FAD0001B0A0603D0C01E2A
:1088800030BD001B30BD0A0401D0801E30BD09027E
:10889000FCD0401E30BD000001010101F8B5042AE2
:1088A0002CD3830712D00B78491C0370401C521E36
:1088B00083070BD00B78491C0370401C521E8307A2
:1088C00004D00B78491C0370401C521E8B079B0F71
:1088D00005D0C91ADF002023DE1B08C90AE0FBF718
:1088E00053FCF8BD1D4608C9FD401C46B4402C434E
:1088F00010C0121F042AF5D2F308C91A521EF0D470
:108900000B78491C0370401C521EEAD40B78491C9A
:108910000370401C521EE4D409780170F8BD01E0D8
:1089200004C0091F0429FBD28B0701D50280801CDB
:10893000C90700D00270704700290BD0C30702D0CE
:108940000270401C491E022904D3830702D502800D
:10895000801C891EE3E70022EEE70022DFE7002209
:1089600003098B422CD3030A8B4211D300239C466C
:108970004EE003460B433CD4002243088B4231D3E4
:1089800003098B421CD3030A8B4201D394463FE078
:10899000C3098B4201D3CB01C01A524183098B42D8
:1089A00001D38B01C01A524143098B4201D34B01C1
:1089B000C01A524103098B4201D30B01C01A524124
:1089C000C3088B4201D3CB00C01A524183088B42AB
:1089D00001D38B00C01A524143088B4201D34B0094
:1089E000C01A5241411A00D2014652411046704706
:1089F0005DE0CA0F00D04942031000D3404253400B
:108A000000229C4603098B422DD3030A8B4212D3CA
:108A1000FC22890112BA030A8B420CD389019211FC
:108A20008B4208D3890192118B4204D389013AD039
:108A3000921100E08909C3098B4201D3CB01C01A0E
:108A4000524183098B4201D38B01C01A5241430921
:108A50008B4201D34B01C01A524103098B4201D30F
:108A60000B01C01A5241C3088B4201D3CB00C01A7C
:108A7000524183088B4201D38B00C01A5241D9D294
:108A800043088B4201D34B00C01A5241411A00D215
:108A90000146634652415B10104601D34042002B11
:108AA00000D54942704763465B1000D3404201B590
:108AB0000020C046C04602BD7047704770477546EB
:108AC00000F022F8AE46050069465346C008C000D3
:108AD000854618B020B5FBF783FB60BC002749082A
:108AE000B6460026C0C5C0C5C0C5C0C5C0C5C0C546
:108AF000C0C5C0C5403D49008D4670470446C046CC
:108B0000C0462046FBF729FB00487047A0280020FC
:108B100001491820ABBEFEE72600020070470000A6
:108B20000418010002180100031801004C8B010019
:108B300000200020D800000004410100248C010026
:108B4000D820002028180000204101000024F40053
:108B50000000FFFF1000000003000000DB4E0100DA
:108B60000000000000000000000000000000000005
:108B700000000000000000000000000000000000F5
:108B800000000000000000000000000000000000E5
:108B900000000000000000000000000000000000D5
:108BA00000000000000000000000000000000000C5
:108BB00000000000000000000000000000000000B5
:108BC00000000000000000000000000000000000A5
:108BD0000000000000000000000000000000000095
:108BE0000000000000000000000000000000000085
:108BF0000000000000000000000000000000000075
:108C00000000000000000000000000000000000064
:108C10000000000000000000000000000000000054
:048C20000000000050
:04000005000140C1F5
:00000001FF
