:020000040001F9
:10400000483B0020C1410100D3410100D5410100DE
:1040100000000000000000000000000000000000A0
:10402000000000000000000000000000D741010077
:104030000000000000000000D9410100DB41010048
:10404000DD410100DD410100DD410100DD410100F4
:10405000DD41010000000000618501001B430100FB
:10406000DD410100DD410100D38C0100DD41010093
:10407000DD410100DD410100DD410100DD410100C4
:10408000DD410100D56B0100DD410100DD41010092
:10409000F76B010079840100B56F0100DD4101007B
:1040A000DD410100DD4101000000000000000000D2
:1040B0000000000000000000000000000000000000
:1040C00000F002F800F040F80CA030C808382418BE
:1040D0002D18A246671EAB4654465D46AC4201D140
:1040E00000F032F87E460F3E0FCCB6460126334232
:1040F00000D0FB1AA246AB4633431847C451000018
:10410000E4510000103A02D378C878C1FAD85207B7
:1041100001D330C830C101D504680C60704700007D
:104120000023002400250026103A01D378C1FBD8D3
:10413000520700D330C100D50B6070471FB5C04691
:10414000C0461FBD10B510BD05F038F81146FFF789
:10415000F5FF00F09AFF05F050F803B4FFF7F2FF07
:1041600003BC05F055F80000401E00BF00BF00BFB3
:1041700000BF00BF00BF00BF00BF00BF00BF00BF47
:1041800000BFF1D17047000070B505460C461646D9
:1041900002E00FCC0FC5103E102EFAD2082E02D32B
:1041A00003CC03C5083E042E07D301CC01C5361F3E
:1041B00003E021782970641C6D1C761EF9D270BD55
:1041C0000A4802680F210A430260094880470948EB
:1041D0000047FEE7FEE7FEE7FEE7FEE7FEE700003A
:1041E00005480649064A074B704700002405004071
:1041F0009F420100C1400100482B0020483B0020A5
:1042000048330020483300202E482F49086070476B
:104210002E48008CC0B2012810D12C48808C000799
:10422000000F0BD12948806AF0210840402805D1B1
:104230002648C06A084201D1012070470020FCE7EF
:104240002248008CC0B2012827D12048808C00076A
:10425000000F22D11D48806AF021084205D11B4879
:10426000C06A084201D1012070471848806AF021D5
:104270000840102805D11548C06A084201D1012024
:10428000F2E71248806AF0210840302805D10F4833
:10429000C06A084201D10120E6E70020E4E710B53A
:1042A000FFF7CEFF002805D009480A494860C81327
:1042B00009498861FFF7ACFF002802D001200749B7
:1042C000886010BD0024F40000200020C00F00F022
:1042D000DFFF07C000050040006C00400006004002
:1042E00070B504460D46164632462946204604F06F
:1042F000E9FB70BD70B504460D462A462146FA48D2
:10430000FFF7EEFF70BD10B5044600BFF7A2CD2148
:104310002046FFF7E5FF00BF10BDF8B5F64800687E
:1043200000282FD00020F4490860F4488068C5B206
:104330000120F34948604B21090169430846FF21E8
:1043400004F096FE41004018FF300F3086B2304630
:1043500000F0D9FE07463946EA4801F08CFA0446D7
:10436000002C0ED0082C0CD0E748844209D0E74836
:10437000844206D000BFDDA2EE212046FFF7B0FF49
:1043800000BF00BFF8BD70B50120E14948601820AA
:10439000DA4948600020D84908600120D749086000
:1043A000072027DF044600BF2546002D07D000BFA9
:1043B000CEA2FF2106312846FFF792FF00BF00BFC3
:1043C0000321072028DF044600BF2546002D07D023
:1043D00000BFC6A2FF2109312846FFF781FF00BFB9
:1043E00000BF072023DF044600BF2546002D07D06D
:1043F00000BFBEA2FF210C312846FFF771FF00BFAE
:1044000000BF0020BC4908600120BD49086070BDA4
:1044100070B5C048007800281FD10120BE4908703F
:10442000122000F066FE0120BB490870B9490870EF
:10443000B94ABA49BA48006802F0A7FC044600BF6E
:104440002546002D07D000BFA8A2FF212331284612
:10445000FFF746FF00BF00BF00BF70BD70B5B0489A
:10446000006802F0C3FC044600BF2546002D07D0BB
:1044700000BF9EA2FF212E312846FFF731FF00BF6B
:1044800000BF0020A3490870122000F037FE70BD65
:1044900070B5A448007800281DD10120A2490870F9
:1044A0000E2000F026FE01209E4908709E4A9B497E
:1044B0009E48006802F069FC044600BF2546002DB6
:1044C00007D000BF89A2FF2146312846FFF708FF29
:1044D00000BF00BF00BF70BD70B59448006802F017
:1044E00085FC044600BF2546002D07D000BF7FA2F3
:1044F000FF2151312846FFF7F3FE00BF00BF002027
:10450000884908700E2000F0F9FD70BD31B594B0F7
:1045100004210491864B0FCB6C460FC400208549C3
:1045200008603C2105A804F060FD022005900121EF
:1045300068464176818314A9089104A80990042152
:104540006846018669460D91002105A801F06AFDC3
:10455000044600BF2546002D06D000BF63A2764961
:104560002846FFF7BDFE00BF00BF15B030BD30B517
:1045700089B0142104A804F038FD002168460174B4
:104580000020059068460176002007906948006881
:10459000002804D0012806D002283AD12DE00120BD
:1045A0006449086000BF684603F07EFB044600BF14
:1045B0002546002D07D000BF4CA2FF2170312846B0
:1045C000FFF78EFE00BF00BF68460079002803D1C8
:1045D0006846007B00280AD00220694608766846B3
:1045E00007900420FFF792FF0220524908605349C8
:1045F00068460184B42141840CE00520FFF786FF62
:104600004E4968460184B42141840220494908602A
:1046100000E000BF00BF04A863DF044600BF2546DA
:10462000002D07D000BF31A2FF218D312846FFF7B2
:1046300057FE00BF00BF09B030BD10B50446FFF7FC
:10464000A2FE10BDF8B505463648007800283ED0D9
:1046500000BF002D01D0012000E000200090009854
:10466000002806D100BF21A2FF21AF31FFF738FE9D
:1046700000BF00BF0E2032494968012282405140EC
:104680002F4A516000BF2C462078002801D101201C
:1046900000E0002020702078002801D01F4F00E0AB
:1046A000284F224639462148006802F06EFB064634
:1046B00000BF0096009E002E07D000BF0BA2FF2176
:1046C000C4310098FFF70CFE00BF00BF00BFF8BD6B
:1046D000F8B505460F480078002866D000BF002DC9
:1046E00032D0012031E00000EFBEADDE2E2E5C6D39
:1046F00061696E2E6300000000710040007500408B
:1047000000700040A42400200330000001340000A9
:10471000007300401620002004200020CD0C000073
:104720003020002015200020052000202C20002013
:10473000A0920100202000205A020000080800007A
:1047400000050050337300000020009000980028FE
:1047500006D100BFFE4AFF21D831FFF7C1FD00BFDF
:1047600000BF2C462078002801D1012000E0002065
:1047700020702078002801D0F64F00E0F64F224646
:104780003946F648006802F000FB064600BF009676
:10479000009E002E07D000BFED4AFF21ED310098AA
:1047A000FFF79EFD00BF00BF00BFF8BD00BF00BF08
:1047B000032005210907072212028918886400BF17
:1047C00000BF00BF00BF052109078918886300BF2B
:1047D00000BF7047F8B500BF0020E14B072205215C
:1047E000009002F00CFA054600BF2E46002E06D0BF
:1047F00000BFD74ADB493046FFF772FD00BF00BF5C
:1048000000BFD94A0121D94802F078FA044600BF16
:104810002546002D07D000BFCD4AD249891D284624
:10482000FFF75EFD00BF00BFD14A0021D14802F072
:1048300065FA044600BF2546002D07D000BFC44AD4
:10484000C8490B312846FFF74BFD00BF00BFCA4ADD
:104850000021C24802F052FA044600BF2546002D4E
:1048600007D000BFBA4ABF4910312846FFF738FDCC
:1048700000BF00BFF8BD3EB500BF68460078010923
:104880000901491C009168460078F02188431030E6
:10489000009000BF0422B9A168466CDF044600BF47
:1048A0002546002D07D000BFA94A89218900284646
:1048B000FFF716FD00BF00BF0920800168DF044636
:1048C00000BF2546002D07D000BFA14AA5492431CD
:1048D0002846FFF705FD00BF00BF002001900290B1
:1048E000FF21213168468180FF213131C1800421BF
:1048F00001814B21C900418101A86ADF044600BF44
:104900002546002D07D000BF914A96492E312846F2
:10491000FFF7E6FC00BF00BF042067DF044600BFCE
:104920002546002D07D000BF894A8D2189002846E1
:10493000FFF7D6FC00BF00BF3EBD38B50020009099
:1049400004206946087000BF6846407801090901E3
:10495000491C684641704078F02188432030694600
:10496000487000BF00BF6846807800090001887069
:1049700068468078F02188436946887000BF814886
:1049800000F06BFC044600BF2546002D07D000BF99
:104990006F4A744968312846FFF7A2FC00BF00BF88
:1049A00038BD10B50446002C04D0012C08D0022CD0
:1049B0000FD108E0002074490870FFF78DFD09E071
:1049C000FFF766FD06E0FFF787FD0E2000F091FB84
:1049D00000E000BF00BF10BD70B505460C46206862
:1049E000002803D12079FFF7DCFF00E000BF00BF03
:1049F00070BD38B500200090644800906946644856
:104A000000F0E2FC044600BF2546002D07D000BFA1
:104A10004F4A544976312846FFF762FC00BF00BF79
:104A200038BD70B505460C462068002806D1012027
:104A3000554908702079FFF7B4FF00E000BF00BFC0
:104A400070BD3EB50020009001900290514800904A
:104A50005148019000206946087200BF6846407ABC
:104A600001090901491C68464172407AF0218843D6
:104A700020306946487200BF00BF6846807A00094E
:104A80000001401C88726846807AF02188432030FB
:104A90006946887200BF414800F079FD044600BFB6
:104AA0002546002D07D000BF294A2E498B312846C4
:104AB000FFF716FC00BF00BF0020334908703EBD61
:104AC000F8B507460D462868002802D0012828D1ED
:104AD00015E00022E121C9042448006802F055F9DC
:104AE000044600BF2646002E07D000BF184A6D219D
:104AF000C9003046FFF7F4FB00BF00BF12E01B48BF
:104B0000006802F073F9044600BF2646002E06D066
:104B100000BF0F4A22493046FFF7E2FB00BF00BF4B
:104B200000E000BF00BFF8BD30B585B01421684675
:104B300004F05BFA1B4800900121684601710020D7
:104B4000029064216846017300BF407B01092BE09D
:104B5000EC460100CD0C0000337300003020002033
:104B6000F0200020030200003B4601002820002026
:104B7000454601002C200020D146010054696C6597
:104B8000000000007424002014200020D9490100F6
:104B900080240020234A01000743010090240020C4
:104BA0006D030000C14A01000901491C68464173B8
:104BB000407BF021884310306946487300BF00BF36
:104BC0006846807B00090001401C88736846807B32
:104BD000F021884310306946887300BF00BF6846E3
:104BE000C07B00090001C8736846C07BF021884380
:104BF0006946C87300BF00BF6846007C010909010F
:104C0000491C68460174007CF021884310306946D5
:104C1000087400BFFE4800F00DFE044600BF2546A4
:104C2000002D06D000BFFB4AFB492846FFF758FB82
:104C300000BF00BF05B030BDF8B507460C460025E3
:104C40002068002804D0012803D0022813D101E0F5
:104C500012E011E003F0A2FB054600BF2E46002E35
:104C600007D000BFEB4A352109013046FFF738FB7A
:104C700000BF00BF00E000BF00BFF8BD7CB5002052
:104C800000900190E5490870E5480090E5480190E2
:104C90006946E54800F032FE044600BF2546002D77
:104CA00007D000BFDB4ADC4914312846FFF718FB68
:104CB00000BF00BF7CBD10B5FFF73FFEFFF799FEB8
:104CC000FFF7BFFEFFF730FFFFF7D8FF10BD1E2034
:104CD000D649088008468078400840008870084619
:104CE000807802218843D1498870084680781C2149
:104CF00088430C30CD49887008468078202188434D
:104D0000CA4988700720C87010200871704710B514
:104D1000044600BFBF4AB72189002046FFF7E0FAEA
:104D200000BF10BD30B587B01C21684604F05DF9A6
:104D3000002000900520C0030190029003216846E6
:104D400001730021C1810121017400200590B84840
:104D50000690684601F045FA044600BF2546002D3E
:104D600007D000BFAB4AAC494B312846FFF7B8FA31
:104D700000BF00BF07B030BD70B5054600242888CD
:104D8000192856D006DC10280BD0112820D0132863
:104D90006AD13AE01A2866D0392850D0552863D114
:104DA0004EE00020A3490860A888A349088003F0CA
:104DB000E9FA044600BF2646002E07D000BF954AF8
:104DC0009549DE313046FFF78BFA00BF00BF4CE05B
:104DD0009A480078002801D1FFF77EFB0020C043ED
:104DE0009549088002F067FE044600BF2646002E63
:104DF00007D000BF874A8849EA313046FFF770FA8A
:104E000000BF00BFFFF7B3FB2FE0884A00218A48AC
:104E100000886FDF044600BF2646002E07D000BF83
:104E20007C4A7321C9003046FFF75AFA00BF00BF21
:104E30001BE0A879002801D1FFF799FB15E000BF1E
:104E400013217D48008866DF044600BF2646002EF9
:104E500007D000BF6F4A7049FE313046FFF740FA75
:104E600000BF00BF01E000E000BF00BF70BD10B593
:104E70000446204602F0E2FD204601F086FA214673
:104E80006F4800F028FA21466E4800F00AFB2146E0
:104E90005F4800F0D2FB2146634800F0C2FD204687
:104EA000FFF76AFF10BD38B500BF0020664B5022E7
:104EB00066490090052002F036F8044600BF2546FA
:104EC000002D06D000BF534A61492846FFF708FA73
:104ED00000BF00BF00BF38BD10B5044600BF4D4A3B
:104EE0005B4909312046FFF7FBF900BF10BD7FB5D4
:104EF00069460F2003F067FA044600BF2546002DDF
:104F000007D000BF434A1F2149012846FFF7E8F9AF
:104F100000BF00BF4F484069401C08D00122120763
:104F2000126991B24B4A506904F098F802E00120EE
:104F300000074069401E6946087146484069401CA8
:104F400008D001221207126991B2424A506904F056
:104F500085F802E0012000074069C01EC1B2684622
:104F60004171002002903C480390684601788171AD
:104F700001A802F0CFFE044600BF2546002D07D051
:104F800000BF244A324920312846FFF7A9F900BF63
:104F900000BF7FBD10B504460F2C00D108E000BF54
:104FA0001C4A2B4931312046FFF79AF900BF00BF58
:104FB00000BF10BD70B500BF2849012003F035FBCC
:104FC000044600BF2546002D07D000BF114A2049E6
:104FD0003A312846FFF784F900BF00BF00BF70BD1B
:104FE00070B500BF00231E4A01211E4803F06CF972
:104FF000044600BF2546002D07D000BF054A1449CE
:1050000045312846FFF76CF900BF00BF00BF70BDF7
:10501000A4240020EC460100A70200002420002068
:10502000394C010007430100BC2400201820002057
:105030000F4D010020200020062000201420002019
:1050400080240020902400206F4E010010240020B6
:10505000CA03000000100010D94E01006024002097
:10506000660600000820002070B53DDF044600BF42
:105070002546002D07D000BF484A8321C900284695
:10508000FFF72EF900BF00BF70BD1FB500BFFFF7CF
:105090008DFBFFF79FFBFFF78DFFFFF7A1FFFFF7EA
:1050A00026FFFFF700FFFFF7E6FB0520FFF72EFACC
:1050B000FFF701FEFFF736FEFFF709FE384B0FCB77
:1050C0006C460FC40221684641730121017007211B
:1050D000417003F03DFDFFF74AFA0021084603F056
:1050E000DBFD05E04621002003F0D6FDFFF7BCFF05
:1050F000F8E7012181402B4A9160704701218140EE
:10510000284AD160704770B504462748844201DBC5
:10511000642540E02448643884420BDD2249091BA1
:105120003A2251430846642103F0A2FF6421081A81
:10513000C5B230E01D4884420CDD1B496439091BAF
:10514000182251430846A02103F092FF2A21081A91
:10515000C5B220E0164884420CDD1449091B0C221C
:1051600051430846FF212D3103F082FF1221081A16
:10517000C5B210E00F4884420CDD0D49091B062220
:1051800051430846FF21553103F072FF0621081AEA
:10519000C5B200E00025284670BD0000EC460100C5
:1051A000B092010000050050B80B0000B40A0000E6
:1051B000880900003408000030B58FB005460C4661
:1051C0001C2108A803F011FF08A9087802218843D0
:1051D000801C08A90870002009900B900C900D907D
:1051E0000E9000BF0121684681722E49018100BFE7
:1051F00000200190617868460171A1784171807941
:1052000006218843811C6846817180790821884382
:1052100001466846817180791021884301466846BD
:10522000817180794108490068468171142103A881
:1052300003F0DBFE02A8039001A804900121684658
:1052400081820021C1820121018307942888AB1C3F
:1052500003AA08A9A2DF0FB030BDF8B505460E4677
:1052600000BF0121684681700F49018000BF2A46B6
:1052700069460120A0DF0446002C01D02046F8BD7D
:1052800031462846FFF798FFF9E713B582B0044688
:1052900001200190608803AB01AA0021A4DF04B0C3
:1052A00010BD0000072A0000041800007CB5044669
:1052B0000E46B51D2888E18888420BD1288B01282D
:1052C00008D100200090A87E694608712046226817
:1052D000904700BF7CBD70B505460C46208850281D
:1052E00004D121462846FFF7E1FF00E000BF00BFE0
:1052F00070BD10B590B004461C2109A803F075FEDE
:1053000008A9087904218843001D08A90871002014
:105310000A900C900D900E900F9000BF01216846EE
:1053200081733E49818100BF0020029000BF684622
:10533000007A0109090168460172007AF021884368
:105340006946087200BF00BF6846407A010909013A
:10535000491C68464172407AF021884320306946F2
:10536000487200BF6846807A06218843811C6846DF
:105370008172807A08218843014668468172807A6A
:1053800010218843014668468172807A41084900AD
:1053900068468172142104A803F027FE00210191C0
:1053A00003A8049002A8059001216846018300210A
:1053B00041830121818301A80890A088A31D04AA2C
:1053C00009A9A2DF10B010BDF8B504460D46286843
:1053D000002801D10720F8BD2868206000BF012106
:1053E000684681700E49018000BF221D6946012078
:1053F000A0DF0646002E01D03046ECE72046FFF73E
:1054000078FFE8E738B504460D4601200090E088B3
:105410002B466A460021A5DF38BD0000062A0000A1
:10542000021800001CB5044600200090694608716F
:105430002046226890471CBD38B504460D46012021
:10544000009060892B466A460021A5DF38BDFEB575
:1054500004460D466F7B082F14D10020009001A94F
:105460002046FFF7E9FF0646002E04D16946204694
:105470002268904705E06068002802D030466168E5
:10548000884700BFFEBD7CB504460D46A8790028BC
:1054900006D100906946087120462268904700BFF7
:1054A0007CBD70B505460C462088102804D0112814
:1054B00006D017280ED108E02846FFF7B3FF0AE010
:1054C00021462846FFF7C3FF05E021462846FFF79F
:1054D000DAFF00E000BF00BF70BD30B58FB00546F9
:1054E0000C461C2108A803F080FD08A800780221C2
:1054F0008843811C08A8017000780821884308307F
:1055000008A90870002009900B900C900D900E9047
:1055100000BF0121684681722E49018100BF002031
:105520000190617A68460171A17A41718079062102
:105530008843811C6846817180790821884301462F
:1055400068468171807910218843014668468171DF
:1055500080794108490068468171142103A803F04D
:1055600044FD217A009102A8039001A80490012132
:10557000684681820021C182012101830790288928
:105580002B460A3303AA08A9A2DF0FB030BDF8B535
:1055900004460D462868002801D10720F8BD286878
:1055A00020606868606000BF0121684681700A4918
:1055B000018000BF2246083269460120A0DF06466E
:1055C000002E01D03046E9E729462046FFF785FF47
:1055D000E4E70000062A0000031800008A884282DF
:1055E00070470022D24342827047F8B504460E4607
:1055F000207D002820D0B51D2988608981421AD1DC
:10560000288B022817D12068002814D000BF00BFC3
:10561000A97EEA7E120211430846C107C90F00297C
:1056200002D00020009001E0012000906946204651
:105630002268904700BF00BFF8BD70B505460C4614
:105640002088102804D0112807D050280FD109E055
:1056500021462846FFF7C2FF0AE021462846FFF709
:10566000C0FF05E021462846FFF7BFFF00E000BF6E
:1056700000BF70BDF0B591B004460D46207D0028F6
:1056800019D00020099000BF08A80079010909017C
:10569000491C08A801710079F0218843103008A93D
:1056A000087100BF697B08A8417180790621884391
:1056B000801C08A988711C210AA803F096FC08A880
:1056C000007A02218843811C08A80172007A102107
:1056D0008843217D002901D0012100E0002109013A
:1056E00010221140084308A9087200200B900D9069
:1056F0000E90207D002801D009A800E000200F9026
:105700000020109000BF0121684681737749818194
:1057100000BF00200290A97B68460172E97B4172BC
:10572000807A06218843811C68468172807A08212C
:105730008843014668468172807A10218843014679
:1057400068468172807A4108490068468172297BE7
:105750000191142104A803F048FC03A8049002A8B6
:105760000590012168460183002141830121818345
:1057700001A80890A088A31D04AA0AA9A2DF0646D2
:10578000002E02D0304611B0F0BDA86800284DD0E0
:1057900000BF0121684681735549818100BF002007
:1057A0000290287C6946087200BF6846407A010969
:1057B000090168464172407AF0218843694648727F
:1057C00000BF6846807A06218843811C6846817242
:1057D000807A08218843014668468172807A1021C8
:1057E0008843014668468172807A410849006846CC
:1057F0008172A96800F05EFC0746142104A803F03A
:10580000F4FB03A8049002A80590684607830021D2
:105810004183018B81830890E08822460E3204A9DF
:10582000A3DF0646002E03D03046ACE70020E0811F
:105830000020A8E7F8B504460D462868206000203F
:10584000C043608228792075FF20207400BF0121A9
:10585000684681702749018000BF221D69460120EA
:10586000A0DF0646002E01D03046F8BD294620466E
:10587000FFF700FFF9E733B585B004460025207C2B
:105880006946097E88422FD0012104916846007E36
:105890002074E08806AB04AA0021A4DF0546002D91
:1058A00002D0284607B030BD608A1349884219D01B
:1058B000207D002816D000200090019002900390D7
:1058C00001210491E1886846018001218170002155
:1058D000818004A8029006A80390608A6946A6DF2A
:1058E000054600E0082500BF2846DBE7192A00002E
:1058F000082900000F180000FFFF0000024608689A
:10590000002801D10720704708681060486850607F
:105910000020C04350810020108100BF01206D4B4A
:1059200098706D48188000BF0020ECE738B5044639
:105930000D46A888608100BF0121684681706749D3
:10594000018000BF60896A46012180DF38BDF8B55B
:1059500005460C460026E088002802D12089002850
:1059600006D101200090694628462A68904706E043
:1059700027460E376889394682DF064600BF304623
:10598000F8BDF8B506460F46F88800282ED13D46EA
:105990000835002425E04F4881780A206043AA1C7E
:1059A0008018807881421BD14A4801880A206043D0
:1059B000105A814214D10A206043A91C4018007972
:1059C0004007C00F0BD00A20604340180089308187
:1059D000002000906946304632689047F8BD03E0E9
:1059E000641C2888A042D6DC00BF00BF01200090C4
:1059F000694630463268904700BFEFE738B5044645
:105A00000D460020C04360812089002808D0022074
:105A1000009069462046226890470020208100BF00
:105A200038BD70B504460D4600262888102806D0DB
:105A3000112815D0302808D0322816D10BE029467D
:105A40002046FFF773FF064610E029462046FFF781
:105A50007EFF06460AE029462046FFF792FF05E052
:105A600029462046FFF7CAFF00E000BF00BF002E16
:105A700005D06068002802D030466168884770BD54
:105A8000FEB507460C4615461E46002000900190C4
:105A90000290684644800221017000218180C58007
:105AA00002966946384687DFFEBD13B5044600BF3F
:105AB0002089002801D0012000E00020002801D129
:105AC00005201CBD2189608901AB0122FFF7D8FFA9
:105AD000F7E7000034200020062A0000021800002A
:105AE000FEB505460E4614462078801C1F21081A74
:105AF00080B200902178891C881969466DDF019079
:105B00000198002801D00198FEBD2879002808D00E
:105B1000287969460988884203DA2879009008279D
:105B200000E0092768460088401CC1B22278501C5A
:105B30002070B1542178481C207077542178684631
:105B40000088081820700020DEE7F8B505460C46EE
:105B50002078001D1F2801DD0C20F8BD684669DF94
:105B60000646002E01D03046F7E703212278501C6C
:105B70002070A95419212278501C2070A954207833
:105B800041196846008800F08AFA21784018207090
:105B90000020E2E7F8B505460F4616461C46686841
:105BA000002801D10720F8BD2078801C29884018E2
:105BB0001F2801DD0C20F6E72878401CC1B22278AE
:105BC000501C2070B1542178481C207077542A88CA
:105BD00023789819696803F0A9F920782978401882
:105BE00020700020DFE730B503461078C01C1F2866
:105BF00001DD0C2030BD02241578681C10704C5556
:105C00000A241578681C10704C551578681C1070A3
:105C10004B550020EEE7FFB587B006461D46109CA9
:105C20000020069020780590002747E0B9007068B2
:105C300041180A886846028149884181002203A9E7
:105C400002A854DF04900498002802D004980BB0F6
:105C5000F0BD6846017B099881422ED10698002844
:105C600001D0002000E00220019020786946097BE5
:105C70004118019808181F2801DD0C20E7E7069855
:105C8000002809D12078401C20702278511C0898E7
:105C90002170A854012006902078421903A902A877
:105CA00054DF04900498002801D00498CFE72078AE
:105CB0006946097B4018207000BF7F1C3088B842BD
:105CC000B4DC0698002806D021780598401C081AF4
:105CD000C1B2059829540020B9E7FFB581B0074645
:105CE00015460A9E009602223846049B0299FFF749
:105CF00092FF0446002C02D0204605B0F0BD00966D
:105D0000102229463846049BFFF785FF0446002CE5
:105D100001D02046F1E70020EFE701460888062879
:105D200008DB08881922D201904205DD0888E04A84
:105D3000904201D0072070474888062808DB488831
:105D40001922D201904205DD4888D94A904201D0FB
:105D50000720F0E70888D64A904208D04888904249
:105D600005D008884A88904201DD0720E3E700203B
:105D7000E1E7F8B506460D4614462078801D1F2839
:105D800001D90C20F8BD3046FFF7C7FF0746002FAA
:105D900001D03846F6E705212278501C2070A9541E
:105DA00012212278501C2070A95422785119308871
:105DB00000F075F921784018207022785119708808
:105DC00000F06DF92178401820700020DAE7F8B56E
:105DD00005460E4614462879801CC7B22078801CE0
:105DE000C0191F2801DD0C20F8BD781CC1B2227833
:105DF000501C2070B154FF212278501C2070B154E7
:105E000022789119288800F04AF9217840182070EA
:105E1000A88800280EDDA868002801D10720E3E744
:105E2000AA8823789819A96803F080F8207829793E
:105E3000401820700020D7E7FEB507460E461446EE
:105E4000786B002801D10720FEBD0020019032E0D0
:105E5000796B0C22019850430D182879801CC0B230
:105E600000900098401CC1B22278501C2070B154A0
:105E700016212278501C2070B1542278911928885C
:105E800000F00DF9217840182070A88800280EDD58
:105E9000A868002801D10720D6E7AA882378981996
:105EA000A96803F043F820782979401820700198F8
:105EB000401CC0B201903820C15D01988142C7DC0E
:105EC0000020C1E7F8B504460F461646002500201D
:105ED00030702068002809D0324639462046FFF746
:105EE000FFFD0546002D01D02846F8BD6079002849
:105EF00008D031463846FFF728FE0546002D01D070
:105F00002846F2E7208900280BDD33463A46012176
:105F100020460830FFF73EFE0546002D01D02846FA
:105F2000E3E7206900280BD000202169085632469B
:105F30003946FFF758FE0546002D01D02846D4E724
:105F4000A08A00280CDD3B460622022120461430A0
:105F50000096FFF7C2FE0546002D01D02846C4E793
:105F6000A08B00280CDD3B460722032120461C3075
:105F70000096FFF7B2FE0546002D01D02846B4E793
:105F8000A08C00280CDD3B4615221421204624302D
:105F90000096FFF7A2FE0546002D01D02846A4E793
:105FA000E06A002809D032463946E06AFFF7E1FE90
:105FB0000546002D01D0284697E7206B002809D020
:105FC00032463946206BFFF702FF0546002D01D00F
:105FD00028468AE73820005D002809DD3246394628
:105FE0002046FFF729FF0546002D01D028467CE713
:105FF00028467AE701460889002807D0C8680028A3
:1060000004D0C86800780422104201D107207047EC
:106010000020FCE701460889002801DD07207047C1
:106020000020FCE7F3B593B00D46002112911191C9
:106030001398002814D01398FFF7DCFF0446002CB7
:1060400002D0204615B0F0BD12AA09A91398FFF797
:1060500039FF0446002C01D02046F3E709AE00E0EA
:106060000026002D13D02846FFF7D4FF0446002C4D
:1060700001D02046E6E711AA01A92846FFF722FF32
:106080000446002C01D02046DCE701AF00E00027E9
:1060900010A803793A46017A304662DFD2E7024619
:1060A0000A70FF2000021040001248700220704762
:1060B000FFFF0000F8B505460E4600243278214661
:1060C000641C6A5472782146641C6A5400BF022C16
:1060D00001D1012000E000200746002F05D100BFBC
:1060E00008A21B21FEF7FCF800BF00BF2046F8BD48
:1060F00070B504460D46284602F0F6FE2080656025
:1061000070BD00002E2E5C2E2E5C2E2E5C2E2E5C82
:106110002E2E5C536F757263655C626C655C626C9D
:10612000655F73657276696365735C626C655F73E6
:1061300072765F636F6D6D6F6E2E630001464888E7
:10614000B74A1288904206DB4888B54A5288904286
:1061500001DC012070470020FCE738B50546B14856
:106160000088B14988423BD0B0480078401CAF4914
:106170000870AF48007B097888420FDBA849A9481E
:10618000008865DF0446002C07D0A94880690028F4
:1061900003D0A74881692046884721E00020A34911
:1061A0000870A348007C00280FD03B219D48008840
:1061B00066DF0446002C07D09D488069002803D084
:1061C0009B4881692046884700BF9948406900285C
:1061D00006D000200090964841696846884700BF75
:1061E00038BD70B505461C2229469148FDF7CCFF05
:1061F000002090490870286800280BD008228848A1
:10620000296802F093FE86486ADF0446002C08D015
:10621000204670BD82486BDF0446002C01D020462A
:10622000F7E70020C0437F49088000207F490870BD
:10623000814A0021814800F061FDEAE710B57F48FE
:10624000006800F0D3FD10BD38B57D48FFF776FF3C
:10625000002829D17748007800280AD0744840697E
:10626000002820D000200090714841696846884786
:1062700019E06E480078002802D16D48456801E0B9
:106280006B488568002229466C48006800F07DFD57
:106290000446002C07D066488069002803D0644873
:1062A0008169204688470AE061484069002806D095
:1062B000012000905E4841696846884700BF002081
:1062C0005C49087038BD10B50446A088554908805F
:1062D000082221460E315A4802F028FE0020534978
:1062E00008705348C089002801D1FFF7ADFF10BDE9
:1062F00070B505460020C0434A49088000204B493C
:1063000008704E48006800F071FD0446002C07D06C
:1063100047488069002803D045488169204688475E
:1063200070BD70B50546AC1D20884149C9898842B9
:1063300020D1208B02281DD100BF00BFA17EE27EAC
:10634000120211430846C107C90F002902D0FFF706
:106350007BFF0FE03948006800F048FD0646002E3C
:1063600007D033488069002803D03148816930461E
:10637000884700BF70BD10B504460822A11D3048F3
:1063800002F0D4FDFFF760FF10BD10B50446208871
:10639000102806D0112808D012280ED0502810D16D
:1063A00007E02046FFF78FFF0CE02046FFF7A0FF35
:1063B00008E02046FFF7B5FF04E02046FFF7DBFFCB
:1063C00000E000BF00BF10BD38B5044608222146DA
:1063D000134802F0ABFD12486ADF0546002D1CD1C0
:1063E0001748FFF7ABFE00280BD1012011490870B8
:1063F0000B490C48008865DF054601200B490870F1
:106400000BE00B484069002806D0012000900848A6
:1064100041696846884700BF0025284638BD00000E
:106420003A20002044200020FFFF000042200020EE
:10643000C8240020382000205B610100502000208B
:106440004620002010B5002819DAFE4A03071B0F6A
:10645000083B9B089B00D2588307DC0EFF23A34018
:106460009A438B071B0E8407E40EA3401A43F54B97
:106470000407240F083CA408A4001A5118E0F24AAB
:1064800003231B02D21883089B00D2588307DC0E1B
:10649000FF23A3409A438B071B0E8407E40EA340FF
:1064A0001A43E94B032424021B198408A4001A513F
:1064B00010BD10B50446E548846003211120FFF7A4
:1064C000C1FF10BD10B501200004E1494860E0495A
:1064D00040394860112000F0D4FC112000F0C3FCCA
:1064E0000120DC4908602F20FDF73EFE10BD10B5ED
:1064F000112001218140D44A8032116000BF012067
:106500000004D3498860D249403988600120D149CC
:1065100048602F20FDF728FE10BDF0B50246282068
:106520005043CD4B1B68C118CC480068401C02D1B9
:10653000CA48026057E0C9488B6800682824604355
:10654000C54C246800198068834217D8C348006886
:1065500028235843C04B1B68C01880688B68C31A37
:10656000BE48006828246043BB4C2468001983603F
:10657000BA4800684862B948026034E08B68B74D99
:106580002C6828680DE028254543B34E3668AD19C0
:10659000AD685B1B044628254543AF4E3668AD19F0
:1065A000686A451C07D028254543AB4E3668AD19AF
:1065B000AD689D42E7D3451C0CD028254543A64E27
:1065C0003668AD19AD68EE1A28254543A24F3F68DD
:1065D000ED19AE608B604862282565439E4E366893
:1065E000AD196A6200BFF0BD70B502469B4C2168D0
:1065F000084609E0904200D108E0014628244443BF
:10660000954D2D686419606A441CF3D100BF441C89
:1066100000D170BD814209D1904C246828256C437B
:106620008D4D2D686419646A8C4D2C602824444378
:10663000894D2D686419A36828244443864D2D682C
:106640006419656A28244C43834E3668A419656230
:1066500028244C43804D2D686419606A441C0CD07A
:10666000282444437C4D2D686419A468E518282427
:106670004443794E3668A419A56000BFC9E710B538
:10668000112000F0F7FB10BD10B5142000F0F2FB54
:1066900010BD70B5044672480068002813D0704AD7
:1066A000216AE06912689047054600BF2E46002E19
:1066B00007D000BF6BA2FF2155313046FDF710FE19
:1066C00000BF00BF02E0E169206A884770BDF8B5ED
:1066D00062480068401C39D0002700F004FC0446E2
:1066E0006C480168204600F001FC06465B480568DE
:1066F00011E028206843584909684418A068B0424E
:1067000000D90AE0A068361AA068C719656A204651
:10671000FFF7BFFF00BF681CEBD100BF5E480078E9
:106720005E490978884209D15C480078401CC0B2B3
:106730005A490870022801D1002008705748007893
:10674000800057490F50FFF79FFF00BFF8BD01467B
:1067500051480078514A127890421DD04E48007836
:10676000401C4D4A107010460078022801D10020CC
:106770001070494800788000494A10580860454A1E
:10678000086812688018434A1060104600680002CA
:10679000000A1060012070470020086000BFFAE77F
:1067A000FEB52E48006801903E48007800903FE01A
:1067B0000098C0003C4909684418257834E0182046
:1067C000684361680F18681CC5B2A078A84200D160
:1067D00000253868022802D0032822D10EE02821A3
:1067E000786848431C4909684618307E002804D060
:1067F0007868FFF7F9FE0020307613E00CE01749C7
:10680000096828225143144A126888180021017629
:10681000124A416A116000BF10480068401CEED166
:1068200000E000BF00BF00BF6078A842C7D100BF32
:106830000098411EC9B200910028B9D107480168EB
:10684000019833E01CED00E000E100E0001501409C
:10685000401301400010014054200020602000201F
:10686000742000202E2E5C2E2E5C2E2E5C2E2E5C94
:106870002E2E5C536F757263655C6170705F636F21
:106880006D6D6F6E5C6170705F74696D65722E63A3
:1068900000000000642000207020002071200020F3
:1068A00068200020592000205C200020814201D077
:1068B0000120FEBD0020FCE7F0B50346002426E0E1
:1068C000FE4E366828277E43FD4F3F68F0198668E4
:1068D0009E4203D98668F61A86601CE086689B1B78
:1068E00086683419002686600676F44E3568F34FC4
:1068F000466A3E604669002E08D00E193602360AF6
:10690000C6604669066116684662156000BFEB48BE
:106910000068401CD4D100BFF0BDFEB50746E74873
:1069200000680290E7480078019069E00198C00093
:10693000E549096845185CE0781C07D03E462820E8
:106940007043DF4909684418676A23E029781823EF
:1069500059436A6850182978491C29702978AA78FF
:10696000914201D100212970466828217143D44AFF
:1069700012688C180168012902D1217E002900D0FB
:1069800037E08168E160C168216101696161416945
:10699000216200BFCD49E0680968401A0002000A80
:1069A000CB49884208D2C949E068096800F09EFADC
:1069B00021694018A06011E0C448E168006800F057
:1069C00095FA009021690098814204D921690098C4
:1069D000081AA06001E00020A06000BF0020E06075
:1069E000206101202076801E60623046FFF795FD11
:1069F00000BF781CA0D12878697888429CD100BF5C
:106A00000198411EC9B2019100288FD1AB4801689D
:106A10000298814201D00120FEBD0020FCE7FEB5B6
:106A20000546A6480068401C34D0A44800682821C8
:106A30004843A34909684018866800F054FA029058
:106A4000A24804682146029800F050FAC01C019048
:106A5000681C01D1FFF736FD0198B04201D23046E3
:106A600000E0019804192402240A2046994908608C
:106A700000BF00F038FA00900299009800F036FA52
:106A8000C71C2046029900F031FA874201D9FFF76E
:106A9000F6FD01E0FFF72BFDFEBDFEB50020C04373
:106AA00001908A480468854807686846FFF74FFEEA
:106AB0000546FFF775FE0646002D05D001AA2146C2
:106AC0000098FFF7F9FE01260198FFF726FF00283E
:106AD00000D00126002E02D03846FFF7A0FFFEBDF1
:106AE0004170704770B502460B465078411C907853
:106AF000884200D100211078884201D1002070BD69
:106B0000196050781826704355682C182046F6E70F
:106B1000FFB581B005460E461746E9006A4A12687D
:106B200088186946FFF7DEFF0446002C02D10420D6
:106B300005B0F0BD01202060666000F0D4F9A060CF
:106B4000E760049820610A986061E9005E4A126873
:106B500088180099FFF7C4FFFFF796FD0020E7E7CC
:106B6000F8B504460E46E100574A1268881869468F
:106B7000FFF7B8FF0546002D01D10420F8BD022023
:106B800028606E60E100504A126888180099FFF78B
:106B9000A7FFFFF779FD0020F0E738B50446E100D4
:106BA000494A126888186946FFF79CFF0546002D80
:106BB00001D1042038BD03202860001F6860E10077
:106BC000414A126888180099FFF78AFFFFF75CFDB9
:106BD0000020EFE710B500203F49086000213E4843
:106BE00041608160C16000203B49403908604860D5
:106BF000FFF76DFD10BD10B5FFF74FFF10BDFFB5DE
:106C000081B00E4617461C4620468107890F01D1E8
:106C1000012100E00021002902D1072005B0F0BDCC
:106C2000002C01D10720F9E7FFF761FC2B490A98F6
:106C300008602B4806702248046000250CE0002103
:106C4000282068431E4A12681150282068431C4AB5
:106C50001268801801766D1CB542F0DB2820704365
:106C600004190320174908701748046018340025D8
:106C70000CE0E900144A1268881800210170417084
:106C800087704460182179430C196D1C032DF0DBCB
:106C90000020C043094908600020124908701249C9
:106CA0000870142000F0EDF803211420FFF7CAFB50
:106CB000142000F0D8F8019818E0000060200020AF
:106CC00054200020592000205C2000206420002057
:106CD000FFFF7F004015014040110140742000205B
:106CE000582000207020002071200020FFF7E1FBD9
:106CF00000F0F9F88049086000208FE770B503467E
:106D00000C467E480068002801D1082070BD002A8A
:106D100001D10720FAE7002B01D10720F6E7002177
:106D20001CE028204843754D2D682858002814D1B0
:106D3000012528204843714E3668355028204843A5
:106D40006E4D2D6840194460282048436B4D2D68D6
:106D50004019C26119600020D8E7491C68480078D2
:106D60008142DEDB0420D1E710B500F092F8012863
:106D700002D0032804D101E0002403E0012401E053
:106D8000022400BF00BF204610BDFEB504460D46DC
:106D900016465A480068002801D10820FEBD584810
:106DA0000078844201D2052D01D20720F6E7282081
:106DB0006043524909680858012801D00820EDE7CE
:106DC000282060434D49096840184068012801D1D6
:106DD000284600E000200746FFF7C6FF3B462A464C
:106DE000214600960190FFF793FED7E770B5044661
:106DF00042480068002801D1082070BD4048007852
:106E0000844201D30720F8E7282060433B49096802
:106E10000858012801D00820EFE7FFF7A5FF054635
:106E20002146FFF79DFEE8E710B5344800680028CA
:106E300001D1082010BDFFF797FF0446FFF7ADFE14
:106E4000F8E710B5044600F04EF82060002010BDB1
:106E500070B505460E4614463146284600F046F801
:106E60002060002070BDC206D20E01219140254A4B
:106E700011607047C206D20E01219140224A116072
:106E80007047C206D20E012191401F4A8032116024
:106E9000704710B51D484068C105C90D002920D0B4
:106EA0000A46103A104600280DDA184B1C33040726
:106EB000240F083CA408A4001B598407E40EE340F7
:106EC0001B069B0F0BE00F4B032424021B198408A5
:106ED000A4001B598407E40EE3401B069B0FD8B2A5
:106EE00010BD0420FCE70A48406870470246501A6B
:106EF0000002000A70470000642000205420002097
:106F00005820002000E100E000E200E000ED00E099
:106F10000015014070B506460C4615462946204628
:106F2000FDF7E8F970BDFFB581B00C4616461F4667
:106F300020468107890F01D1012100E000210029AD
:106F400002D1072005B0F0BD002C01D10720F9E7E0
:106F500025480460254806802548076025490A9889
:106F600008602549019810DF0546002D01D028460C
:106F7000E8E7162023DFE5E738B500BF1B480088A7
:106F8000009069461848006850DF0446052C00D17F
:106F90000EE0002C06D000BF18A25F212046FDF7AE
:106FA0009FF900BF10480068114909688847E5E764
:106FB00000BF38BD70B50F480068002810D00D48DC
:106FC00000688047044600BF2546002D06D000BF5C
:106FD0000AA271212846FDF783F900BF00BF01E036
:106FE000FFF7CAFF70BD0000802000208420002031
:106FF000782000207C200020156F01002E2E5C2EB2
:107000002E5C2E2E5C2E2E5C2E2E5C536F757263C2
:10701000655C626C655C626C655F737461636B5F19
:1070200068616E646C65722E630000000246100C8D
:107030000004F84B984202D10A8000207047501C8F
:1070400001D10520FAE70B20F8E770B505460121CC
:107050000907096988B2502102F000F8EE49097861
:10706000884201D8042070BDEB480078002810D178
:1070700000221146104600F099FFE8490880E849CF
:107080000878E84901F09DF80446002C01D020461C
:10709000E9E713222946E3480068001D00F0FEFFDF
:1070A0000446002C01D02046DDE7DC4A4C2128466E
:1070B00000F07CFFD949088008460088D54A104373
:1070C0000146D848006800F0E0FF0446002C01D0DB
:1070D0002046C8E7D34800685030D2490860CE48FF
:1070E0000078401CCC4908700020BCE770B505460C
:1070F00001210907096988B2502101F0AFFFCA498F
:107100000978884201D8042070BDC748007800285B
:1071100010D100221146104600F048FFC3490880F4
:10712000BF494878C24901F04CF80446002C01D010
:107130002046E9E706222946BD480068001D00F008
:10714000ADFF0446002C01D02046DDE7B74A1821E8
:10715000284600F02BFFB549088008460088AD4A54
:1071600010430146B248006800F08FFF0446002C2F
:1071700001D02046C8E7AE4800681C30AC49086022
:10718000A9480078401CA84908700020BCE738B521
:107190000546A1480078002810D10022114610466B
:1071A00000F004FF9D4908809D4908789D4901F041
:1071B00008F80446002C01D0204638BD99490968DA
:1071C00008686946FFF732FF0446002C01D02046CC
:1071D000F3E74C2293480168091D2846FCF7D4FFC9
:1071E0008E4A4C21284600F0E1FE8C490880084672
:1071F00000886946098888420BD187480078401C7E
:10720000854908708748006850308649086000202A
:10721000D3E70B20D1E738B505468348007800282E
:1072200010D100221146104600F0C0FE7F490880B0
:107230007B4948787E4900F0C4FF0446002C01D009
:10724000204638BD7A49096808686946FFF7EEFEAE
:107250000446002C01D02046F3E718227448016848
:10726000091D2846FCF790FF704A1821284600F0B7
:107270009DFE6E4908800846008869460988884254
:107280000BD169480078401C67490870684800685D
:107290001C30674908600020D3E70B20D1E710B508
:1072A0005F49087800F00CFF0446002C01D020460E
:1072B00010BD5B49487800F003FF0446002C01D064
:1072C0002046F5E70020F3E738B5002211461046C6
:1072D00000F06CFE0090002409E064216143554AEF
:1072E00088186A464C2100F061FE0090641C5248E8
:1072F00000788442F1DB6846008848490988884262
:1073000001D0012038BD0020FCE738B5002211462D
:10731000104600F04BFE009000240BE06421614316
:10732000444A891808464C306A46182100F03EFE4F
:107330000090641C404800788442EFDB6846008877
:107340003A490988884201D0012038BD0020FCE775
:1073500070B505463948006E002808D03748006EE1
:107360000E2801D9032070BD344C503400E00024B5
:1073700032484C30808A82B2214631480088A9DFE9
:10738000F1E710B5002100202E4A10702E4A10702F
:1073900032E064224A43274BD018427A5207D20F78
:1073A00012D0027852B2284B1B78DB00274CE254F3
:1073B00002461E32244B1B78DB001B195A60224AFE
:1073C0001278521C204B1A704222125C022A12D0F0
:1073D000027852B21B4B1B78DB001D4CE254024674
:1073E0004232184B1B78DB001B195A60154A127881
:1073F000521C144B1A70491C0F4800788142C8DB9C
:1074000010BD7CB505460C480078072822DB042017
:107410007CBD00000000DE459C2000209020002064
:107420001C250020942000209D2000209220002078
:10743000982000208C2500208C200020282500206A
:107440008A2000208D2000208E200020802800200F
:107450004828002032222946FE4801F067FDE988CD
:10746000FC48001FC18700210166FB480078F949EC
:10747000091F0860F8490978F74A1278521CF64B40
:107480001A7064225143F54A88186422F149091F91
:10749000FCF77AFEFFF775FF0120F1490870002222
:1074A0001146F0480088A9DF0446002C01D0204690
:1074B0007CBDE848001FFFF7C8FD0446042C15D129
:1074C000E9484068002811D004200090E148001FDE
:1074D000007841B268460171DE48001FC18F6846DE
:1074E000C180E14841686846884703E0002C01D02C
:1074F0002046DDE7DC484068002811D000200090DD
:10750000D448001F007841B268460171D148001F7D
:10751000C18F6846C180D44841686846884700BF2B
:107520000020C5E770B5CB48001F0468002C23DBA2
:10753000C948007884421FDAC9480078002808D07A
:1075400064216143C54A88184C22C249091FFCF7CF
:107550001BFEC648007800280AD064216143BF4A58
:10756000891808464C301822BA494831FCF70CFEFD
:10757000FFF707FF002500E00325284670BD70B522
:107580000546002412E064206043B4494018C08FCF
:10759000A8420AD1642060430A4681186422AD489B
:1075A000001FFCF7F1FD002070BD641CAA480078A4
:1075B0008442E8DB0520F7E770B594B00020A649C7
:1075C00008702FE001A8FFF7E2FD0546052D00D168
:1075D0002CE0002D02D0284614B070BD019E9E48BC
:1075E0000078864201DD0B20F6E7642171439B4A57
:1075F00088184C2201A9FCF7C7FD974800788642FD
:107600000FD1002164207043944A80180166491EFE
:10761000642070438018C1648F480078401C8E49F4
:10762000087000BF8C4800780728CBDB00BF00241F
:107630001DE00EA8FFF7EFFD0546052D00D11AE06D
:10764000002D01D02846C7E7834909780E98884263
:1076500001DD0B20C0E764220E9951437F4A89184F
:1076600008464C3018220EA9FCF78EFD641C7A489F
:1076700000788442DDDB00BF7748047810E0002109
:10768000C94364206043754A11500021642060435F
:1076900080180166491E642060438018C164641C20
:1076A000072CECDBFFF76DFE002095E77CB5044668
:1076B000A0886C4908800020C0436649091F086003
:1076C0000722A11D63483E3001F030FC00216148D3
:1076D000001F0166607BC007C00F1AD0607B4508A1
:1076E000072D04DAE80062490856072804DB5E48E3
:1076F0008168032088470BE0E8005D4A1056642249
:107700005043564A811864225248001FFCF73CFD42
:1077100021E0002519E0E800564940184668062295
:107720004C493F31701C01F0B1FB00280CD1E8003E
:10773000504A105664225043484A811864224548F2
:10774000001FFCF721FD04E06D1C4B4800788542CA
:10775000E1DB00BF00BF3F48001F0068401C1AD09B
:1077600000203F490870414908703F4840680028A0
:1077700011D0012000903748001F007841B26846C0
:1077800001713448001FC18F6846C1803648416886
:107790006846884700BF7CBD70B505462D48001F70
:1077A0000068401C0AD035480078C007C00F05D0DB
:1077B0003248007802210840400806D000221146D5
:1077C00028480088A9DF044609E02248001FFFF787
:1077D000BFFD0446002C02D1012024490870002C72
:1077E00003D0214881682046884770BD7CB5044697
:1077F00032222146174801F099FBE1881548001F05
:10780000C1870146096864225143144A88186421DB
:1078100001F0EBFB0F49091F0968642251430F4A2D
:10782000881864220B49091FFCF7AEFC0948001FA9
:10783000FFF70BFC0546042D2BD10B4840680028B0
:1078400027D0042000900348001F007841B268460A
:10785000017115E02C2500208C2000208C250020B3
:107860009F2000208A2000201C250020A02000202E
:1078700080280020482800208D2000209E20002005
:10788000F848C18F6846C180F74841686846884714
:1078900005E0002D03D0F448816828468847F24867
:1078A000406800280FD003200090EE48007841B2D5
:1078B00068460171EB48C18F6846C180EA4841685B
:1078C0006846884700BF7CBD70B504462078002814
:1078D00000D070BDE5480078C007C00F00D1F8E7C0
:1078E000E0480068401C12D1E088FFF748FE0546DA
:1078F000002D01D10F2503E02046FFF782FD05464C
:10790000002D03D0D84881682846884705E001202B
:10791000D74908702046FFF769FF00BFD9E770B567
:107920000546E889FFF72BFE0446002C10D1012004
:10793000CF4908700022CB490A31CE48008871DF58
:107940000446002C1ED0C84881682046884719E0AC
:10795000052C17D10C22A91DC248363001F0E6FAD9
:1079600000221146C348008871DF0446002C03D072
:10797000BD4881682046884700221146BD480088DE
:10798000A9DF0446002C03D0B74881682046884709
:1079900070BDFEB5044620780607360F207807092B
:1079A000012E01D1012F03DC022E2CD1002F2AD071
:1079B00000BFAE48007801210843AC49087000BF01
:1079C000A848FFF7C5FC0546002D04D0A6488168ED
:1079D0002846884702E00120A7490870A24840686D
:1079E00000280FD0022000909E48007841B26846DF
:1079F00001719C48C18F6846C1809B4841686846B8
:107A0000884700BF00BFFEBD10B50446A078C00780
:107A1000C00F12D000BF9548007802210843934957
:107A2000087000BF8F480068401C06D000218D48B8
:107A300001660E21503001F0D8FA10BD10B5044691
:107A40008E480078002803D187488168082088473D
:107A50002088142820D006DC10280BD011280DD047
:107A6000132825D11CE0172812D018281CD0522822
:107A70001ED109E02046FFF719FE1AE000BF0020E2
:107A80007A49087000BF14E02046FFF785FE10E039
:107A9000A01DFFF719FF0CE02046FFF740FF08E0AC
:107AA000A01DFFF7B1FF04E0A01DFFF772FF00E08B
:107AB00000BF00BF10BD38B500BF70480078002877
:107AC00001D1082038BD00BF66480068401C1CD0AA
:107AD0000E2000906A466349503166480088AADF4C
:107AE0000446002C01D02046ECE75E4800685D4962
:107AF000C864684601885B480166FFF713FD0446C9
:107B0000002C01D02046DDE700BFFFF7DDFB002899
:107B10001DD05549087800F0D3FA0446002C01D056
:107B20002046CFE700205649087000250BE064216D
:107B30006943544A8818FFF788FA0446002C01D09C
:107B40002046BFE76D1C504800788542EFDBFFF709
:107B5000DCFB00281FD04449487800F0B1FA044605
:107B6000002C01D02046ADE70020484908700025D0
:107B70000DE064216943434A891808464C30FFF7F9
:107B8000B5FA0446002C01D020469BE76D1C3E4808
:107B900000788542EDDB0020C0433649088031493A
:107BA0000860C86400212F48016600203049087031
:107BB0003149087000BF85E738B52A48006E0028B3
:107BC00026D10E2000906A46264950312948008867
:107BD000AADF0446002C01D0204638BD21480068A9
:107BE0002049C864684601881E4801660146096844
:107BF00064225143234A891808464C3018221949F7
:107C00004C31FCF7C1FA17484C30FFF76FFAE4E744
:107C10000820E2E710B500BF18480078002801D11D
:107C2000082010BD00BF00201749087014490870D3
:107C300016490870FFF733FBF3E770B504460D46AD
:107C4000601C0DD010480078844209DA002D07D05E
:107C5000642060430B49401840308078022817D1D7
:107C6000072070BD282500201C2500209E20002014
:107C70009F2000208A200020A020002088200020B3
:107C80009C2000208C2500208C2000209D2000209E
:107C900064206043B44A80180146423107222846D6
:107CA00001F044F90020DCE710B50246002107E0AE
:107CB000C800AE4BC01840688B00AD4CE050491C6A
:107CC000AC4800788142F3DB002107E0C800AA4BF2
:107CD000C01840688B00A94CE050491CA8480078A7
:107CE0008142F3DBA64800781071A548007800288F
:107CF00001D0A24800E0002010609E480078107378
:107D00009C480078002801D0994800E0002090604D
:107D1000002010BD70B50546A868002801D10720D5
:107D200070BD01210907096988B2502101F096F957
:107D3000072801D20C20F3E7924829460EC90EC04D
:107D40006421914801F051F90020C0438E49086038
:107D50008E49088000208E4908708E4908708E492F
:107D6000087000BF8D49087000BF864880780028E1
:107D700006D0FFF794FA0446002C01D02046CFE746
:107D8000FFF71AFC0446002C01D02046C8E701206A
:107D9000834908700020C3E710B5034600BF804840
:107DA0000078002801D1082010BD00BF002901D1B2
:107DB0000E20F9E70888764C2478A04201DA0C20DE
:107DC000F2E7734800780880002B01D10020EBE730
:107DD000002200BF07E064205043634C0019C08FAD
:107DE00054001853521C6A4800788242F3DB00208A
:107DF000DAE7F8B5074600BF69480078002801D1E6
:107E00000820F8BD00BF0026F64300240AE06420E5
:107E1000604355494018C08FB84201D166B205E0B1
:107E2000601CC4B25A4800788442F0DB00BF701C6A
:107E300001D10520E5E7F4B226E0621C64235A4331
:107E4000494BD11864226243D0186422FCF79CF994
:107E50006420604344490858401E64216143424AFB
:107E600050506420604311464018C06C411C09D03A
:107E70006420604311464018C06C401E6421614379
:107E80008918C864601CC4B241480078401EA042F2
:107E9000D3DC3F490978491E64225143324A88188D
:107EA000642101F0A2F83A480078401E3849087071
:107EB000344908783B4900F084F90546002D01D08B
:107EC00028469EE72F494878374900F07AF9054659
:107ED000002D01D0284694E7FFF7E1F90546002D73
:107EE00001D028468DE700202A4908702A490870E9
:107EF00000240CE0642161431B4A8818FFF7A5F8B1
:107F00000546002D01D028467BE7601CC4B22048FE
:107F100000788442EEDB00240EE064216143124AC3
:107F2000891808464C30FFF7E1F80546002D01D0CE
:107F3000284666E7601CC4B2154800788442ECDB32
:107F4000FFF71FFA00205CE7014600BF14480078E5
:107F5000002801D10820704700BF10480078C007F2
:107F6000C00F08700020F6E78C2500208028002034
:107F7000002500208E20002048280020E424002036
:107F80008D2000201C250020282500208A2000208C
:107F90008C2000209C2000209D2000209E2000207E
:107FA00088200020942000209820002070B50346EF
:107FB0000C46002A01D1894D00E015882846002191
:107FC00011E0051206023543A8B25D5C6840050663
:107FD0002D0F684005034540A8B205062D0D6D0024
:107FE00068404D1CA9B2A142EBDB70BD02217C4A66
:107FF000516000BF7B4909680029FBD0784988603F
:1080000000BF784909680029FBD00021744A5160FB
:1080100000BF744909680029FBD070470122704BEA
:108020005A6000BF6F4A1268002AFBD0016000BF8F
:108030006C4A1268002AFBD00022694B5A6000BFCC
:10804000684A1268002AFBD0704770B504460D4696
:1080500000E03DDF644800780028FAD10120604943
:10806000486000BF5F4800680028FBD0256000BF63
:108070005C4800680028FBD000205949486000BFD8
:10808000584800680028FBD070BD70B504460D4606
:1080900029462046FFF7D9FF002070BDF8B50546F8
:1080A0000E461746002407E0A00031582846FFF787
:1080B000CCFF2D1D601C84B2BC42F5DB0020F8BD56
:1080C00070B5044601200007006980B26043054690
:1080D0002846FFF78BFF002070BDF7B584B015462A
:1080E00001200007006980B20499484307463C46D6
:1080F000A90000220598FFF759FF0390206801901E
:10810000019880B2029003990298884202D100201F
:1081100007B0F0BD3846FFF769FF241D241D002677
:1081200007E0B200059881582046FFF777FF241D2D
:10813000761CAE42F5DB2946381DFFF786FF2B493A
:1081400003980843019038460199FFF77EFF00200D
:10815000DEE7F7B586B00746144601200007006940
:1081600080B278430490049D286803900398000C23
:10817000000401901D490198884204D0002020701D
:10818000052009B0F0BD2D1D287820702D1D207808
:10819000800005902946059A0798FBF7F5FF20789F
:1081A000810000220798FFF701FF06460F48304381
:1081B000029003990298884201D00520E1E700204F
:1081C000DFE7024601200007006980B250430860E3
:1081D000002070470449087070470000FFFF00004E
:1081E00000E5014000E40140A12000200000DE4540
:1081F00070B504468A480068002812D02178884A61
:10820000A06812689047054600BF2E46002E06D093
:1082100000BF84A229213046FCF762F800BF00BFEE
:1082200002E02078A168884770BDF1B582B00027D0
:10823000029C69468748007800F005FB0190019890
:10824000002800D0FEBD8449009809680840074610
:108250008248006800998843074320463840044616
:10826000002C18D0002511E00C2068437C490968D7
:108270004618317801208840204205D0B068002897
:1082800002D03046FFF7B4FF681CC5B275480078CD
:108290008542E9DB00BF00BFD4E770B504460D4658
:1082A00071480068FEF7A2FD0646002E00D070BDA2
:1082B0002046284302466D4801686B480068FEF777
:1082C00064FD064600BFF2E7FFB583B005460C46E5
:1082D0001646052E02D2072007B0F0BD60480560A3
:1082E00060480470614806604D49069808600020A7
:1082F00059490860594908602CE00C21614348192C
:1083000002780192416802910299890005221207C0
:1083100007231B02D318019A9200995000BF41789D
:10832000002901D0012100E00021027891404A4A51
:1083300012681143484A11604178002901D1012196
:1083400000E0002102789140444A12681143434AF8
:10835000116000BF2046611ECCB20028CDD1444B35
:108360003E4802683C4801683A4800F097F90746E1
:10837000002F01D03846AFE73E4A00213A48FEF7C9
:10838000BDFCA9E710B536480068002801D10820D7
:1083900010BD3048007800F0C6F9F9E710B5304854
:1083A0000068002801D1082010BD2A48007800F09C
:1083B00029FA0446002C01D02046F5E72A48006837
:1083C000FEF714FDF0E7F8B507460C4600262448F2
:1083D0000068002801D10820F8BD69461D480078D2
:1083E00000F031FA0546002D01D02846F4E70120BF
:1083F000B84006460098064208D118480068304246
:1084000001D0012000E00020207007E01248006841
:10841000304201D0012000E0002020700020DBE786
:10842000B82000202E2E5C2E2E5C2E2E5C2E2E5C74
:108430002E2E5C536F757263655C6170705F636F45
:108440006D6D6F6E5C6170705F627574746F6E2EAF
:1084500063000000BC200020B0200020AC200020E1
:10846000A4200020A8200020C0200020B42000204C
:108470009B8201002B82010010B518480078012171
:1084800048401649087016480068002804D008467D
:10849000007813490968884710BDF8B505460F46AE
:1084A00016460F480660152027DF0446002C01D031
:1084B0002046F8BD2946152028DF0446002C01D0AF
:1084C0002046F6E7152023DF0446002C01D0204685
:1084D000EFE73946032049DFEBE70000C420002026
:1084E000C8200020F0B502460C46002035E00123EC
:1084F0008340194623460B422ED0D5680D4205D144
:1085000001235B04D5680D43D56004E003231B04FD
:10851000D5688D43D56005252D0707263602AD1990
:108520008600AD5903263604B543052636070727CE
:108530003F02F6198700F55105252D07072636025B
:10854000AD198600AD591D430526360707273F02A2
:10855000F6198700F55100BF401C2028C7D3F0BD95
:10856000FEB5E14806690020E049C863002527E020
:1085700014206843DE49096844180120A840DD49F9
:10858000096808421AD0E068C0437040216808407A
:10859000074639462046FFF7A5FFA068B04338409C
:1085A000009060683040384001900099019808437D
:1085B00003D0226900990198904700BF681CC5B29A
:1085C000CD4800788542D3DBFEBD10B501460020C2
:1085D00028E014224A43C64B1B689A580123834063
:1085E0001A421ED00522120707231B02D21883004D
:1085F000D25803231B049A4305231B070724240294
:108600001B1984001A510522120707231B02D218D6
:108610008300D25805231B07072424021B1984005A
:108620001A51401C2028D4D310BD70B505460C4605
:10863000002C01D1072070BD20468107890F01D190
:10864000012100E00021002901D10720F3E7A8481B
:108650000460AA4805700020A7490870A549086071
:10866000A6480078142250430146A148006800F053
:10867000BCFC0020C043A249886006200121814043
:10868000A04A116000BF012100F0F7F80620012187
:1086900081409D4A116000BF0020CCE7F8B5044638
:1086A0000D4616461F4692480068002801D1082052
:1086B000F8BD002F01D10720FAE78F4800788F49D5
:1086C0000978884201DB0420F2E7284630438A49D2
:1086D000097814225143864A12685050864800781F
:1086E000142148438249096840184560824800784F
:1086F000142148437E490968401886607E48007806
:10870000142148437A490968401807617A4800787B
:10871000207079480078401C774908702078FFF76E
:1087200054FF0020C4E7F0B50246714800680028F5
:1087300001D10820F0BD70480078824201DB07209B
:10874000F8E70020694BD863674804696948006806
:10875000002802D158066A4B586001209040654BB2
:108760001B681843634B1860002314205043604D6E
:108770002D684019C360002140E001238B4018465A
:10878000142353435A4D2D68EB58034235D02546E8
:10879000054202D003231B040EE001235B041425D1
:1087A0005543534E3668AD19ED68054314265643BC
:1087B0004F4F3F68F619F56005252D07072636024D
:1087C000AD198E00AD5903263604B543052636078C
:1087D00007273F02F6198F00F55105252D070726BB
:1087E0003602AD198E00AD591D4305263607072701
:1087F0003F02F6198F00F55100BF491C2029BCD358
:10880000002097E710B5044639480068002801D1D8
:10881000082010BD38480078844201DB0720F8E7C3
:108820002046FFF7D2FE0120A0403249096881436B
:10883000304801600068002803D10120C00730499A
:1088400088600020E5E710B5024629480068002846
:1088500001D1082010BD28480078824201DB0720A2
:10886000F8E714205043224C246803191E4800697D
:108870001C68204008600020ECE710B5002819DAD9
:10888000224A03071B0F083B9B089B00D258830713
:10889000DC0EFF23A3409A438B071B0E8407E40ED4
:1088A000A3401A43194B0407240F083CA408A40052
:1088B0001A5118E0144A03231B02D21883089B00A4
:1088C000D2588307DC0EFF23A3409A438B071B0E6D
:1088D0008407E40EA3401A430B4B032424021B1904
:1088E0008408A4001A5110BD0005005040610040EA
:1088F000CC200020D0200020D5200020D420002033
:108900000063004080E200E000E100E01CED00E0D8
:10891000F8B504465B4806686D46771BFF200130BA
:10892000874200D900E03846024629462046883072
:10893000FBF72AFCF8BDF8B504460F461546622041
:1089400000900120504908800846446045807F22FD
:108950003946083000F04CFB00214B486830C177A5
:108960006838FFF7D5FF49484069401C08D001220C
:108970001207126991B2454A506900F06FFB02E09C
:10898000012000074069801EC6B23F493046009A68
:10899000FFF7A3FBF8BDF8B5044662200090002560
:1089A0003A484069401C08D001221207126991B26E
:1089B000364A506900F052FB02E00120000740698E
:1089C000801EC6B26A4621463046FFF7C2FB054606
:1089D000052D01D10020F8BD002D01D02846FAE771
:1089E0002088002800D1F6E70E2001218140284A86
:1089F000916000BF00BF2088002803D02548007880
:108A00000028F8D00E2001218140214AD16000BF0A
:108A10001E484069401C08D001221207126991B219
:108A20001A4A506900F01AFB02E001200007406971
:108A3000801EC6B23046FFF743FB05462846CAE70C
:108A4000012014490870704738B50021009168462C
:108A50000078002815D00C48FFF79DFF044600BFA2
:108A6000002C01D0052C01D1012000E0002005469A
:108A7000002D05D100BF08A27C21FBF731FC00BF0F
:108A800000BF38BD00400100B828002000100010D1
:108A900000050050D62000202E2E5C2E2E5C2E2E9F
:108AA0005C2E2E5C2E2E5C536F757263655C626C5F
:108AB000655C626C655F6572726F725F6C6F672E6A
:108AC0006300000005460C4616467F2231460B48DF
:108AD00000F08EFA002109486030C17708490C8007
:108AE00008480560084600880648006872B6A2B2C9
:108AF00031462846FFF71FFF00BFFEE7402A00204F
:108B0000D8200020DC200020002906D100BF01224F
:108B10008240CD4BDA6000BF06E000BF01228240F8
:108B2000C94B9A6000BF00BF704770B504460D4640
:108B30001646102C02D30020C04370BDE0B232466E
:108B4000294644DF0121A140084642DF2046F4E7E0
:108B500070B504462078012802DB2078032802DD66
:108B60000020C04370BD607B030000F058FB05048B
:108B70000B12192027000920B44908616420B44968
:108B800008601EE00820B1490861FF20B049086074
:108B900017E00520AD4908618C20AD49086010E060
:108BA0000220AA4908616420A949086009E0002060
:108BB000A6490861FF20A649086002E00020C043E2
:108BC000D0E700BF2078A3490860002019E0611CAD
:108BD000095C8200A04B995082009958012205231C
:108BE0001B0707252D025B198D005A5100BF00217C
:108BF00082009A4B995021460A31095C984A1154D7
:108C0000401C944909688842E1D301209549C86015
:108C100000208E4988608E480068400091491522E6
:108C200092018918C86000208849486008208E4950
:108C3000086000218C48C038C160816041600160DB
:108C400000251BE0884BC03BAE009919844B5B5D4F
:108C50009B00864E9A196E00231D985DFFF765FFF5
:108C60007F49495D8900814BCA186900491C231D51
:108C7000585C7D49B439FFF758FF6D1C7548006892
:108C80008542DFD303210A2028DF0A2023DF0120C9
:108C900074490860002065E78200754B99504A00CE
:108CA0006B4B1A600023704AC03AD360714A6E4B16
:108CB0001A60714A52680123DB041A4205D101226D
:108CC000684B5A60D2046C4B5A600122654B1A60A3
:108CD000704710B500216448C038C160481E66491D
:108CE000886000206549086066E06448006880008C
:108CF0005F490858002814D15949604A1268885CB5
:108D000000F09AF85D4909688900534A50580021DB
:108D1000FFF7FAFE00205949096889004F4A505070
:108D200045E056480068800051490858484909689C
:108D3000884214D34A49514A1268885C00F07CF892
:108D40004E4909688900444A50580121FFF7DCFE6A
:108D500000204A4909688900404A505027E04748A6
:108D6000006880004249085840003E49152292019F
:108D70008918424A12689200885040480068800072
:108D800036490858002812D13C4A12689200324BEA
:108D90009958334A394B1B68D05C0123032200F0F9
:108DA00018F801203549096889002C4A5050334889
:108DB0000068401C3149086030480068254909684E
:108DC000884292D30820284908600120254908607C
:108DD00010BD70B5002B0BD101248C401A4DEC60F6
:108DE000274C224D51263601AD198600AC510AE0C0
:108DF00001248C40144DAC60224C1C4D5126360190
:108E0000AD198600AC5100BF00BF00BF0124850032
:108E1000164EAD192C600C0203252C4315042C436F
:108E20001D052C43354651263601AD198600AC513F
:108E300000BF00BF00BF70BD13490C4A51231B0186
:108E4000D2188300D15070470005005000A50040A3
:108E5000E4200020EC200020CC2A0020D82A00208A
:108E6000E820002000A0004000A200400060004078
:108E7000C02A00200808000000A30040E0200020D5
:108E8000031F0200031F0100001F0300034610B56B
:108E90000B439B070FD1042A0DD308C810C9121F1A
:108EA000A342F8D018BA21BA884201D9012010BDD6
:108EB0000020C04310BD002A03D0D30703D0521CAA
:108EC00007E0002010BD03780C78401C491C1B1BD8
:108ED00007D103780C78401C491C1B1B01D1921E42
:108EE000F1D1184610BD000030B5441C03E00178F4
:108EF000401C00290DD08107F9D10B4BDD0104C8BE
:108F0000D11A91432940FAD0001B0A0603D0C01E93
:108F100030BD001B30BD0A0401D0801E30BD0902E7
:108F2000FCD0401E30BD000001010101F8B5042A4B
:108F30002CD3830712D00B78491C0370401C521E9F
:108F400083070BD00B78491C0370401C521E83070B
:108F500004D00B78491C0370401C521E8B079B0FDA
:108F600005D0C91ADF002023DE1B08C90AE0FBF781
:108F70000BF9F8BD1D4608C9FD401C46B4402C4302
:108F800010C0121F042AF5D2F308C91A521EF0D4D9
:108F90000B78491C0370401C521EEAD40B78491C04
:108FA0000370401C521EE4D409780170F8BD01E042
:108FB00004C0091F0429FBD28B0701D50280801C45
:108FC000C90700D00270704700290BD0C30702D038
:108FD0000270401C491E022904D3830702D5028077
:108FE000801C891EE3E70022EEE70022DFE7000095
:108FF000F8B507460B4639461943890713D1164C75
:10900000E601042A0FD302CB0D1B8D43354202D15A
:1090100002C0121FF5E7CBB20370521E401C002B9A
:1090200013D0090AF7E7002A14D01978521E5B1CE6
:109030000170401C002908D0002A0BD01978521E5C
:109040005B1C0170401C0029EDD1002A02D01146A2
:10905000FFF7C9FF3846F8BD0101010100220309ED
:109060008B422CD3030A8B4211D300239C464EE043
:1090700003460B433CD4002243088B4231D30309FF
:109080008B421CD3030A8B4201D394463FE0C309B1
:109090008B4201D3CB01C01A524183098B4201D3C9
:1090A0008B01C01A524143098B4201D34B01C01AB4
:1090B000524103098B4201D30B01C01A5241C3082C
:1090C0008B4201D3CB00C01A524183088B4201D39B
:1090D0008B00C01A524143088B4201D34B00C01A87
:1090E0005241411A00D201465241104670475DE09C
:1090F000CA0F00D04942031000D34042534000221F
:109100009C4603098B422DD3030A8B4212D3FC22C7
:10911000890112BA030A8B420CD3890192118B4246
:1091200008D3890192118B4204D389013AD092115C
:1091300000E08909C3098B4201D3CB01C01A524117
:1091400083098B4201D38B01C01A524143098B42E0
:1091500001D34B01C01A524103098B4201D30B01C9
:10916000C01A5241C3088B4201D3CB00C01A5241EE
:1091700083088B4201D38B00C01A5241D9D24308D5
:109180008B4201D34B00C01A5241411A00D2014612
:10919000634652415B10104601D34042002B00D57C
:1091A0004942704763465B1000D3404201B500203E
:1091B000C046C04602BD704770477047754600F014
:1091C00023F8AE46050069465346C008C0008546F0
:1091D00018B020B5FBF704F860BC00274908B64674
:1091E0000026C0C5C0C5C0C5C0C5C0C5C0C5C0C5B6
:1091F000C0C5403D49008D4670470446C046C04644
:109200002046FAF7AAFF000000487047E42A002031
:1092100001491820ABBEFEE726000200704730B4BB
:109220007446641E2578641CAB4204D3635D5B0006
:10923000E31830BC18471D46F8E7000000000102A3
:109240000406090C1014181D23282E353B424A51E0
:10925000586068707880889098A0A8AFB6BEC5CBDB
:10926000D2D8DDE3E8ECF0F4F7FAFCFEFFFFFFFFF5
:10927000FFFEFCFAF7F4F0ECE8E3DDD8D2CBC5BE94
:10928000B6AFA8A0989088807870686058514A421C
:109290003B352E28231D1814100C0906040201006A
:1092A0000418010002180100031801000F18010042
:1092B0000308090A0001020304050203000000007C
:1092C000E092010000200020F000000004410100B5
:1092D000D0930100F0200020581A00002041010026
:1092E0000024F4000000FFFF0F0000000300000056
:1092F000954F010000000000000000000000000089
:10930000000000000000000000000000000000005D
:10931000000000000000000000000000000000004D
:10932000000000000000000000000000000000003D
:10933000000000000000000000000000000000002D
:10934000000000000000000000000000000000001D
:10935000000000000000000000000000000000000D
:1093600000000000000000000000000000000000FD
:1093700000000000000000000000000000000000ED
:1093800000000000000000000000000000000000DD
:1093900000000000000000000000000000000000CD
:1093A00000000000000000000000000000000000BD
:1093B00000000000000000000000000000000000AD
:1093C000000000000000000000000000000000009D
:04000005000140C1F5
:00000001FF
