:020000040001F9
:1040000078300020ED440100FF440100014501002B
:1040100000000000000000000000000000000000A0
:104020000000000000000000000000000345010047
:1040300000000000000000000545010007450100E8
:104040000945010009450100094501000945010034
:104050000945010000000000094501000945010073
:104060000945010009450100DB4201000945010045
:104070000945010009450100094501000945010004
:1040800009450100094501000945010009450100F4
:1040900009450100094501000945010009450100E4
:1040A0000945010009450100000000000000000072
:1040B0000000000000000000000000000000000000
:1040C00000F002F800F031F80CA030C808382418CD
:1040D0002D18A246671EAB4654465D46AC4201D140
:1040E00000F023F87E460F3E0FCCB6460126334241
:1040F00000D0FB1AA246AB4633431847A005000088
:10410000B0050000103A02D378C878C1FAD8520737
:1041100001D330C830C101D504680C6070471FB5A9
:10412000C046C0461FBD10B510BD00F072FA114662
:10413000FFF7F5FF00F0B4F900F08AFA03B4FFF7D7
:10414000F2FF03BC00F08EFA002906D100BF012265
:104150008240BF4BDA6000BF06E000BF0122824010
:10416000BB4B9A6000BF00BF704710B502460B46BC
:10417000002107E0B748006801248C40204200D1AC
:1041800002E0491C1029F5D300BF102902D30020FA
:10419000C04310BDB048512424010019CC00025185
:1041A000AD48512424010019001DCC000351012009
:1041B0008840A84C60600846EBE710B50446012033
:1041C000A649C8600220A6498860230000F051FA81
:1041D00005040B12192027000920A1490861642059
:1041E000A04908601BE008209D490861FF209D4907
:1041F000086014E002209A4908619B4899490860C8
:104200000DE002209649086164209649086006E0A6
:10421000002093490861FF209249086000BF00BF59
:104220009048006840008D49152292018918C860A5
:1042300000208B49486008208C49086000218B4889
:10424000C038C160816041600160894800688000B9
:10425000884A81188548C038FFF787FF844800687E
:104260008000844A81188148B438FFF77EFF03211B
:104270000A2000F07AF80A20012181407E4A11606C
:1042800000BF01207549086010BD70B504460D4699
:104290007A48046000BF01200521090707221202A5
:1042A0008918A200885000BF002075490860284680
:1042B000FFF783FF70BD8200724B995000236B4A59
:1042C000C03AD360704A694B1A600122D2046F4B26
:1042D0005A600122614B1A60704710B50021634893
:1042E000C038C160481E6949886066480068002877
:1042F0000CD15F49086800F0A2F860490868002105
:10430000FFF722FF00205E49086027E05D48006853
:104310005449096888420CD35549086800F08FF861
:10432000564908680121FFF70FFF00205449086033
:1043300014E0544800684000494940310860504842
:10434000006800280AD14D4A1168494A01231068C3
:10435000032200F041F80120494908600820434940
:10436000086001203D49086010BD10B5002819DA29
:10437000474A03071B0F083B9B089B00D258830743
:10438000DC0EFF23A3409A438B071B0E8407E40E29
:10439000A3401A433E4B0407240F083CA408A40082
:1043A0001A5118E0344A03231B02D21883089B00D9
:1043B000D2588307DC0EFF23A3409A438B071B0EC2
:1043C0008407E40EA3401A432B4B032424021B1939
:1043D0008408A4001A5110BD70B5002B0BD1012424
:1043E0008C401B4DEC602B4C224D51263601AD19F3
:1043F0008600AC510AE001248C40154DAC60264C7F
:104400001C4D51263601AD198600AC5100BF00BFCE
:1044100000BF01248500174EAD192C600C02032546
:104420002C4315042C431D052C43354651263601DB
:10443000AD198600AC5100BF00BF00BF70BD174969
:104440000C4A51231B01D2188300D1507047000041
:104450000005005000F5014000F0014000A00040C0
:1044600000A50040002000206504000000A20040DC
:10447000904601000060004000E100E008200020BC
:104480000C200020042000200808000000A30040A9
:104490001CED00E0031F0200031F0100001F0300CA
:1044A00002210720FFF7F1FE102000218A000523DA
:1044B0001B07072424021B1984001A5100BF11E0B6
:1044C000102009490969C140C907C90F002905D150
:1044D000FF21F5310020FFF7EEFE03E00021084642
:1044E000FFF7E9FEECE70000000500500A4802680B
:1044F0000F210A4302600948804709480047FEE748
:10450000FEE7FEE7FEE7FEE7FEE700000548064996
:10451000064A074B7047000024050040CB450100C8
:10452000C140010078200020783000207828002049
:10453000782800202E482F49086070472E48008CAC
:10454000C0B2012810D12C48808C0007000F0BD17D
:104550002948806AF0210840402805D12648C06AD1
:10456000084201D1012070470020FCE72248008C5E
:10457000C0B2012827D12048808C0007000F22D12B
:104580001D48806AF021084205D11B48C06A0842D4
:1045900001D1012070471848806AF0210840102896
:1045A00005D11548C06A084201D10120F2E712483E
:1045B000806AF0210840302805D10F48C06A0842BF
:1045C00001D10120E6E70020E4E710B5FFF7CEFFB8
:1045D000002805D009480A494860C813094988617C
:1045E000FFF7ACFF002802D001200749886010BD0A
:1045F0000024F40014200020C00F00F0DFFF07C0EB
:1046000000050040006C0040000600407047704705
:104610007047754600F022F8AE46050069465346DD
:10462000C008C000854618B020B5FFF76FFF60BC1A
:1046300000274908B6460026C0C5C0C5C0C5C0C5CC
:10464000C0C5C0C5C0C5C0C5403D49008D46704706
:104650000446C046C0462046FFF770FD004870473C
:104660001820002001491820ABBEFEE726000200FA
:10467000704730B47446641E2578641CAB4204D382
:10468000635D5B00E31830BC18471D46F8E7000087
:10469000020000000300000000000000AC46010022
:1046A000002000201800000004410100000000006C
:1046B00000000000000000000000000000000000FA
:0446C0000024F400DE
:04000005000140C1F5
:00000001FF
