:020000040000FA
:10000000D010002065020000770200007902000095
:1000100000000000000000000000000000000000E0
:100020000000000000000000000000007B02000053
:1000300000000000000000007D0200007F020000C0
:1000400081020000810200008102000081020000A4
:100050008102000000000000810200008102000017
:100060008102000081020000810200008102000084
:100070008102000081020000810200008102000074
:100080008102000081020000810200008102000064
:100090008102000081020000810200008102000054
:1000A000810200008102000000000000000000004A
:1000B0000000000000000000000000000000000040
:1000C00000F002F800F040F80CA030C808382418FE
:1000D0002D18A246671EAB4654465D46AC4201D180
:1000E00000F032F87E460F3E0FCCB6460126334272
:1000F00000D0FB1AA246AB4633431847C4080000A1
:10010000E4080000103A02D378C878C1FAD8520740
:1001100001D330C830C101D504680C6070470000BD
:100120000023002400250026103A01D378C1FBD813
:10013000520700D330C100D50B6070471FB5C046D1
:10014000C0461FBD10B510BD00F0F6FB1146FFF70D
:10015000F5FF00F0ABF800F00EFC03B4FFF7F2FF80
:1001600003BC00F013FC000070B505460C461646B3
:1001700002E00FCC0FC5103E102EFAD2082E02D38B
:1001800003CC03C5083E042E07D301CC01C5361F9E
:1001900003E021782970641C6D1C761EF9D270BDB5
:1001A00027492648086070472648018CC9B20129B2
:1001B00017D1828C120714D1028D1206130F03D1AE
:1001C000838D1B061B0F0FD0120F012A03D1838DC5
:1001D0001B061B0F08D0032A03D1828D1206120FB3
:1001E00002D0012907D015E0184A17495160D113F0
:1001F000174A916102E0818C09070BD1018D090634
:10020000090F042906D1808D0006000F02D1114983
:10021000012088601048808D00070DD40F491048D8
:10022000CA6A42620A6B82624A6BC2628A6B02636A
:10023000C96BC20511434163704700000024F400FC
:1002400000000020C00F00F0DFFF07C000050040E5
:10025000006C00400006004080000010C00000104C
:10026000001700400A4802680F210A43026009484B
:10027000804709480047FEE7FEE7FEE7FEE7FEE7A6
:10028000FEE7000005480649064A074B7047000094
:1002900024050040A9010000C1000000D00000209A
:1002A000D0100020D0080020D0080020F0B5002099
:1002B00083B00746064600902B480121C162002505
:1002C00045622A480B22C26009224261284A4262E2
:1002D000284CA560E56165620422026026484560FD
:1002E00026488160016000F075F8691E002802D080
:1002F000084603B0F0BD00F0F0F8A1680029FAD07C
:10030000A5601A498969002FC9B206D0009A153232
:10031000904206D90E020090EDE701270E020090F0
:10032000E9E70E43B1043206B3070027B00B890E8C
:10033000920E9B0F032B00D11B1F00F02BF901A87D
:1003400000F04FFA0028D6D001990804020E0748A1
:10035000C261E269012AFCD1E561C9B2C161E0690B
:100360000128FCD1E561C6E70007005000250040E8
:1003700000A04E000021004000230040002000406B
:10038000FB490A78012A05D8002805D0012808D0A1
:1003900002280AD000207047F6488861082048707B
:1003A00007E0F5488861092002E0F44888610A20E6
:1003B000487001207047EE4942B20B78012B04D8F7
:1003C00028322D2A01D2820701D0002070474861CF
:1003D00001207047F0B4EA48002101600124820541
:1003E00014600268002AFCD0E14883695C60DC602C
:1003F00005252D025D1969601A46FF3241321160F0
:1004000051609160D1600126032736043F02DA195A
:100410005660F211D45004222A61152292019A18D2
:10042000456B1560FF25053555601C60016143690A
:10043000FC251A46AA434DD15AB2042A4ADC272584
:10044000ED43AA4246DB057A032D43D8CD4E032265
:10045000B260CD4A1160CD4A1161CD4E3461176949
:10046000002FFCD0116171603160CA4A8181D36074
:100470001561536A1B0A1B025362556A836A1E0E7A
:10048000354355621B02D3611463D1624379C57948
:100490001B022B4353630379C5781B042D022B43A6
:1004A00085782B435361838C058C5B062D062B438B
:1004B000858B2D042B4385792D022B4325339361A6
:1004C00041720470B4480169102211430161F0BC0B
:1004D00000207047F0BC04207047F8B5AE480169B1
:1004E000102211430161A94FA14C0025F868002892
:1004F0002DD0FD60A948022101602078042826D172
:10050000A34901204860A648006801281BD1A548DE
:10051000017842780907090F022914D8252A12D830
:1005200000291CD0012921D055230021002A07D9F8
:100530004618B6789E4206D1491CC9B29142F7D3FB
:10054000A089401CA0812721964800F0EEF9A069FF
:10055000FF304130016800290AD00560C6E79249A2
:10056000801C00F04FF90028EAD0ECE70F23DCE70D
:1005700040680028BAD0A069FF30413045606078FB
:10058000C106C90E01208840844908602069401CCA
:100590002061F8BDF8B59446754DD2B2AA72AB632E
:1005A0000124E9636C720027EF812E78002E08D0B9
:1005B000002808D003281FD0012E3CD0EC81022057
:1005C000F8BD0520F8BD79483A4607606D4884605B
:1005D00007614761032181606B4807606B480761D1
:1005E0006B4B1C6101690029FCD002615A601A60E2
:1005F000AA812C700020F8BD012EDFD0A88901212E
:10060000C9030843E88169483A4607605D48846049
:1006100007614761032181605B4807605B480761B0
:100620005B4B1C6101690029FCD002615A601A60B1
:10063000AA812C702AE0272902D9EC810120F8BD7B
:100640004B4D0026AE81EF6A00974E002F6BB61C13
:10065000544D012802D002281AD017E02721514812
:1006600000F063F95148002101604A48404A009B6C
:100670008363C7638660456044480160424D03233D
:100680002B60C16042484460042010700020F8BD17
:100690003748252A02D9C4810320F8BD1807000F66
:1006A00028706A705B1C3AD0012B07D0022B0BD04C
:1006B000032B0FD02E48C4810420F8BD62463A496E
:1006C000A81C00F0CCF80AE00F226146A81C00F03C
:1006D00007F904E055226146A81C00F001F93348EF
:1006E0000022026022482B49C36A8B63036BCB63F1
:1006F000C36B5B009B1C8B604D60244B1A60224BCC
:1007000003221A604269CA6082691E49FF3241327F
:100710000A611F4A4A614C6002210170B6E76046D7
:1007200000280DD001280BD0022841D00328ADD1DC
:100730000F48002947D0012949D002294CD03EE07A
:100740001A4A002111601348009B8363C7638660C7
:1007500045600E4B19600C4B03211960044D6D6907
:10076000C56011601C600A4804600148D5E70000BC
:1007700004000020008000400090004000A00040E5
:100780000001004000F5014000120040001100404F
:10079000001000400015004000ED00E080E200E0A5
:1007A00000140040440000209A0900004015004059
:1007B00048B2104A28302D2801D2880701D00420E1
:1007C000F8BD516162E70C498161082102E00B49E3
:1007D00081610921417059E7094981610A2141700C
:1007E00054E7044900234A7A4B72C98901601046D4
:1007F000704700000400002000800040009000408E
:1008000000A00040034610B50B439B070FD1042AFC
:100810000DD308C810C9121FA342F8D018BA21BAC4
:10082000884201D9012010BD0020C04310BD002A1C
:1008300003D0D30703D0521C07E0002010BD03787B
:100840000C78401C491C1B1B07D103780C78401CFA
:10085000491C1B1B01D1921EF1D1184610BDF8B5E1
:10086000042A2CD3830712D00B78491C0370401C38
:10087000521E83070BD00B78491C0370401C521E7C
:10088000830704D00B78491C0370401C521E8B0751
:100890009B0F05D0C91ADF002023DE1B08C90AE020
:1008A000FFF762FCF8BD1D4608C9FD401C46B44078
:1008B0002C4310C0121F042AF5D2F308C91A521E85
:1008C000F0D40B78491C0370401C521EEAD40B78FC
:1008D000491C0370401C521EE4D409780170F8BD15
:1008E000D2B210B513029A1813049A1800F00EF839
:1008F00010BD01E004C0091F0429FBD28B0701D5FC
:100900000280801CC90700D00270704700290BD0FC
:10091000C30702D00270401C491E022904D383077A
:1009200002D50280801C891EE3E70022EEE7002248
:10093000DFE7704770477047754600F023F8AE4612
:10094000050069465346C008C000854618B020B56A
:10095000FFF798FC60BC00274908B6460026C0C5D2
:10096000C0C5C0C5C0C5C0C5C0C5C0C5C0C5403D67
:1009700049008D4670470446C046C0462046FFF7F2
:10098000ECFB0000004870476C0000200149182073
:10099000ABBEFEE7260002007047FFC1FBE84C90AB
:1009A000728BE7B3518963AB232302841872AA6167
:1009B0002F3B51A8E53749FBC9CA0C18532CFD0041
:1009C000E0090000000000204400000004010000D5
:1009D000240A0000440000208C10000020010000C8
:1009E0000024F400000808010001000303000000D7
:1009F0000000000000000000040000000080004033
:100A00000300000000000000000000002941767192
:100A10005B06000055555500710200000000000003
:040A200000000000D2
:04000005000000C136
:00000001FF
